{
  "_format": "hh-sol-artifact-1",
  "contractName": "ServiceProvider",
  "sourceName": "contracts/ServiceProvider.sol",
  "abi": [
    {
      "inputs": [
        {
          "internalType": "contract IWorldID",
          "name": "_worldId",
          "type": "address"
        },
        {
          "internalType": "string",
          "name": "_appId",
          "type": "string"
        },
        {
          "internalType": "string",
          "name": "_actionId",
          "type": "string"
        },
        {
          "internalType": "contract IERC20",
          "name": "_token",
          "type": "address"
        },
        {
          "internalType": "uint256",
          "name": "_price",
          "type": "uint256"
        },
        {
          "internalType": "uint256",
          "name": "_expirationTime",
          "type": "uint256"
        },
        {
          "internalType": "uint256",
          "name": "_minReputation",
          "type": "uint256"
        }
      ],
      "stateMutability": "nonpayable",
      "type": "constructor"
    },
    {
      "inputs": [],
      "name": "AlreadyRecommended",
      "type": "error"
    },
    {
      "inputs": [
        {
          "internalType": "uint256",
          "name": "nullifierHash",
          "type": "uint256"
        }
      ],
      "name": "DuplicateNullifier",
      "type": "error"
    },
    {
      "inputs": [],
      "name": "InsufficientBalance",
      "type": "error"
    },
    {
      "inputs": [],
      "name": "NotEnoughReputation",
      "type": "error"
    },
    {
      "inputs": [],
      "name": "OnlyProvider",
      "type": "error"
    },
    {
      "inputs": [],
      "name": "TransferFailed",
      "type": "error"
    },
    {
      "inputs": [],
      "name": "ZeroAmount",
      "type": "error"
    },
    {
      "anonymous": false,
      "inputs": [
        {
          "indexed": false,
          "internalType": "uint256",
          "name": "requestId",
          "type": "uint256"
        },
        {
          "indexed": false,
          "internalType": "uint256",
          "name": "serviceId",
          "type": "uint256"
        },
        {
          "indexed": false,
          "internalType": "string",
          "name": "encryptionKey",
          "type": "string"
        },
        {
          "indexed": false,
          "internalType": "uint256",
          "name": "timestamp",
          "type": "uint256"
        }
      ],
      "name": "NewServiceRequest",
      "type": "event"
    },
    {
      "anonymous": false,
      "inputs": [
        {
          "indexed": false,
          "internalType": "uint256",
          "name": "requestId",
          "type": "uint256"
        },
        {
          "indexed": false,
          "internalType": "string",
          "name": "encryptedConnectionDetails",
          "type": "string"
        },
        {
          "indexed": false,
          "internalType": "uint256",
          "name": "expiresAt",
          "type": "uint256"
        }
      ],
      "name": "ServiceFulfilled",
      "type": "event"
    },
    {
      "anonymous": false,
      "inputs": [
        {
          "indexed": false,
          "internalType": "uint256",
          "name": "nullifierHash",
          "type": "uint256"
        }
      ],
      "name": "Verified",
      "type": "event"
    },
    {
      "anonymous": false,
      "inputs": [
        {
          "indexed": true,
          "internalType": "address",
          "name": "provider",
          "type": "address"
        },
        {
          "indexed": false,
          "internalType": "uint256",
          "name": "amount",
          "type": "uint256"
        }
      ],
      "name": "Withdrawal",
      "type": "event"
    },
    {
      "inputs": [],
      "name": "balance",
      "outputs": [
        {
          "internalType": "uint256",
          "name": "",
          "type": "uint256"
        }
      ],
      "stateMutability": "view",
      "type": "function"
    },
    {
      "inputs": [
        {
          "internalType": "uint256[]",
          "name": "requestId",
          "type": "uint256[]"
        },
        {
          "internalType": "bytes32[]",
          "name": "groupId",
          "type": "bytes32[]"
        },
        {
          "internalType": "string[]",
          "name": "encryptedConnectionDetails",
          "type": "string[]"
        }
      ],
      "name": "batchFulfill",
      "outputs": [],
      "stateMutability": "nonpayable",
      "type": "function"
    },
    {
      "inputs": [],
      "name": "expirationTime",
      "outputs": [
        {
          "internalType": "uint256",
          "name": "",
          "type": "uint256"
        }
      ],
      "stateMutability": "view",
      "type": "function"
    },
    {
      "inputs": [
        {
          "internalType": "uint256",
          "name": "requestId",
          "type": "uint256"
        },
        {
          "internalType": "bytes32",
          "name": "groupId",
          "type": "bytes32"
        },
        {
          "internalType": "string",
          "name": "encryptedConnectionDetails",
          "type": "string"
        }
      ],
      "name": "fulfill",
      "outputs": [],
      "stateMutability": "nonpayable",
      "type": "function"
    },
    {
      "inputs": [
        {
          "internalType": "address",
          "name": "user",
          "type": "address"
        }
      ],
      "name": "getServiceRequestForUser",
      "outputs": [
        {
          "components": [
            {
              "internalType": "uint256",
              "name": "id",
              "type": "uint256"
            },
            {
              "internalType": "address",
              "name": "user",
              "type": "address"
            },
            {
              "internalType": "uint256",
              "name": "serviceId",
              "type": "uint256"
            },
            {
              "internalType": "string",
              "name": "encryptionKey",
              "type": "string"
            },
            {
              "internalType": "string",
              "name": "encryptedConnectionDetails",
              "type": "string"
            },
            {
              "internalType": "uint256",
              "name": "timestamp",
              "type": "uint256"
            },
            {
              "internalType": "bool",
              "name": "fulfilled",
              "type": "bool"
            },
            {
              "internalType": "uint256",
              "name": "expiresAt",
              "type": "uint256"
            }
          ],
          "internalType": "struct IServiceProviderStructs.ServiceRequest",
          "name": "",
          "type": "tuple"
        }
      ],
      "stateMutability": "view",
      "type": "function"
    },
    {
      "inputs": [],
      "name": "getUnfulfilledRequests",
      "outputs": [
        {
          "components": [
            {
              "internalType": "uint256",
              "name": "id",
              "type": "uint256"
            },
            {
              "internalType": "address",
              "name": "user",
              "type": "address"
            },
            {
              "internalType": "uint256",
              "name": "serviceId",
              "type": "uint256"
            },
            {
              "internalType": "string",
              "name": "encryptionKey",
              "type": "string"
            },
            {
              "internalType": "string",
              "name": "encryptedConnectionDetails",
              "type": "string"
            },
            {
              "internalType": "uint256",
              "name": "timestamp",
              "type": "uint256"
            },
            {
              "internalType": "bool",
              "name": "fulfilled",
              "type": "bool"
            },
            {
              "internalType": "uint256",
              "name": "expiresAt",
              "type": "uint256"
            }
          ],
          "internalType": "struct IServiceProviderStructs.ServiceRequest[]",
          "name": "",
          "type": "tuple[]"
        }
      ],
      "stateMutability": "view",
      "type": "function"
    },
    {
      "inputs": [],
      "name": "minReputation",
      "outputs": [
        {
          "internalType": "uint256",
          "name": "",
          "type": "uint256"
        }
      ],
      "stateMutability": "view",
      "type": "function"
    },
    {
      "inputs": [],
      "name": "nextRequestId",
      "outputs": [
        {
          "internalType": "uint256",
          "name": "",
          "type": "uint256"
        }
      ],
      "stateMutability": "view",
      "type": "function"
    },
    {
      "inputs": [
        {
          "internalType": "uint256",
          "name": "",
          "type": "uint256"
        }
      ],
      "name": "nullifierHashes",
      "outputs": [
        {
          "internalType": "bool",
          "name": "",
          "type": "bool"
        }
      ],
      "stateMutability": "view",
      "type": "function"
    },
    {
      "inputs": [],
      "name": "paymentToken",
      "outputs": [
        {
          "internalType": "contract IERC20",
          "name": "",
          "type": "address"
        }
      ],
      "stateMutability": "view",
      "type": "function"
    },
    {
      "inputs": [],
      "name": "price",
      "outputs": [
        {
          "internalType": "uint256",
          "name": "",
          "type": "uint256"
        }
      ],
      "stateMutability": "view",
      "type": "function"
    },
    {
      "inputs": [],
      "name": "provider",
      "outputs": [
        {
          "internalType": "address",
          "name": "",
          "type": "address"
        }
      ],
      "stateMutability": "view",
      "type": "function"
    },
    {
      "inputs": [
        {
          "internalType": "address",
          "name": "user",
          "type": "address"
        },
        {
          "internalType": "uint256",
          "name": "root",
          "type": "uint256"
        },
        {
          "internalType": "uint256",
          "name": "nullifierHash",
          "type": "uint256"
        },
        {
          "internalType": "uint256[8]",
          "name": "proof",
          "type": "uint256[8]"
        }
      ],
      "name": "recommend",
      "outputs": [],
      "stateMutability": "nonpayable",
      "type": "function"
    },
    {
      "inputs": [
        {
          "internalType": "address",
          "name": "",
          "type": "address"
        }
      ],
      "name": "recommendations",
      "outputs": [
        {
          "internalType": "uint256",
          "name": "",
          "type": "uint256"
        }
      ],
      "stateMutability": "view",
      "type": "function"
    },
    {
      "inputs": [
        {
          "internalType": "address",
          "name": "user",
          "type": "address"
        }
      ],
      "name": "recommendationsCount",
      "outputs": [
        {
          "internalType": "uint256",
          "name": "",
          "type": "uint256"
        }
      ],
      "stateMutability": "view",
      "type": "function"
    },
    {
      "inputs": [
        {
          "internalType": "address",
          "name": "",
          "type": "address"
        },
        {
          "internalType": "address",
          "name": "",
          "type": "address"
        }
      ],
      "name": "recommended",
      "outputs": [
        {
          "internalType": "bool",
          "name": "",
          "type": "bool"
        }
      ],
      "stateMutability": "view",
      "type": "function"
    },
    {
      "inputs": [
        {
          "internalType": "bytes32",
          "name": "groupId",
          "type": "bytes32"
        }
      ],
      "name": "reportGroupId",
      "outputs": [],
      "stateMutability": "nonpayable",
      "type": "function"
    },
    {
      "inputs": [
        {
          "internalType": "uint256",
          "name": "serviceId",
          "type": "uint256"
        },
        {
          "internalType": "string",
          "name": "encryptionKey",
          "type": "string"
        }
      ],
      "name": "requestService",
      "outputs": [],
      "stateMutability": "nonpayable",
      "type": "function"
    },
    {
      "inputs": [
        {
          "internalType": "uint256",
          "name": "",
          "type": "uint256"
        }
      ],
      "name": "requests",
      "outputs": [
        {
          "internalType": "uint256",
          "name": "id",
          "type": "uint256"
        },
        {
          "internalType": "address",
          "name": "user",
          "type": "address"
        },
        {
          "internalType": "uint256",
          "name": "serviceId",
          "type": "uint256"
        },
        {
          "internalType": "string",
          "name": "encryptionKey",
          "type": "string"
        },
        {
          "internalType": "string",
          "name": "encryptedConnectionDetails",
          "type": "string"
        },
        {
          "internalType": "uint256",
          "name": "timestamp",
          "type": "uint256"
        },
        {
          "internalType": "bool",
          "name": "fulfilled",
          "type": "bool"
        },
        {
          "internalType": "uint256",
          "name": "expiresAt",
          "type": "uint256"
        }
      ],
      "stateMutability": "view",
      "type": "function"
    },
    {
      "inputs": [
        {
          "internalType": "uint256",
          "name": "_price",
          "type": "uint256"
        }
      ],
      "name": "setPrice",
      "outputs": [],
      "stateMutability": "nonpayable",
      "type": "function"
    },
    {
      "inputs": [
        {
          "internalType": "address",
          "name": "",
          "type": "address"
        }
      ],
      "name": "userToGroupId",
      "outputs": [
        {
          "internalType": "bytes32",
          "name": "",
          "type": "bytes32"
        }
      ],
      "stateMutability": "view",
      "type": "function"
    },
    {
      "inputs": [
        {
          "internalType": "address",
          "name": "",
          "type": "address"
        }
      ],
      "name": "userToRequest",
      "outputs": [
        {
          "internalType": "uint256",
          "name": "",
          "type": "uint256"
        }
      ],
      "stateMutability": "view",
      "type": "function"
    },
    {
      "inputs": [
        {
          "internalType": "uint256",
          "name": "amount",
          "type": "uint256"
        }
      ],
      "name": "withdraw",
      "outputs": [],
      "stateMutability": "nonpayable",
      "type": "function"
    }
  ],
  "bytecode": "0x60e0604052600160c09081525034801561001857600080fd5b506040516136c33803806136c3833981810160405281019061003a919061040b565b8686868273ffffffffffffffffffffffffffffffffffffffff1660808173ffffffffffffffffffffffffffffffffffffffff16815250506100ce6100a283604051602001610088919061052c565b60405160208183030381529060405261017b60201b60201c565b826040516020016100b4929190610564565b60405160208183030381529060405261017b60201b60201c565b60a0818152505050505083600560006101000a81548173ffffffffffffffffffffffffffffffffffffffff021916908373ffffffffffffffffffffffffffffffffffffffff16021790555033600460006101000a81548173ffffffffffffffffffffffffffffffffffffffff021916908373ffffffffffffffffffffffffffffffffffffffff160217905550826003819055508160068190555080600781905550505050505050506105ea565b600060088260405160200161019091906105d3565b6040516020818303038152906040528051906020012060001c901c9050919050565b6000604051905090565b600080fd5b600080fd5b600073ffffffffffffffffffffffffffffffffffffffff82169050919050565b60006101f1826101c6565b9050919050565b6000610203826101e6565b9050919050565b610213816101f8565b811461021e57600080fd5b50565b6000815190506102308161020a565b92915050565b600080fd5b600080fd5b6000601f19601f8301169050919050565b7f4e487b7100000000000000000000000000000000000000000000000000000000600052604160045260246000fd5b61028982610240565b810181811067ffffffffffffffff821117156102a8576102a7610251565b5b80604052505050565b60006102bb6101b2565b90506102c78282610280565b919050565b600067ffffffffffffffff8211156102e7576102e6610251565b5b6102f082610240565b9050602081019050919050565b60005b8381101561031b578082015181840152602081019050610300565b60008484015250505050565b600061033a610335846102cc565b6102b1565b9050828152602081018484840111156103565761035561023b565b5b6103618482856102fd565b509392505050565b600082601f83011261037e5761037d610236565b5b815161038e848260208601610327565b91505092915050565b60006103a2826101e6565b9050919050565b6103b281610397565b81146103bd57600080fd5b50565b6000815190506103cf816103a9565b92915050565b6000819050919050565b6103e8816103d5565b81146103f357600080fd5b50565b600081519050610405816103df565b92915050565b600080600080600080600060e0888a03121561042a576104296101bc565b5b60006104388a828b01610221565b975050602088015167ffffffffffffffff811115610459576104586101c1565b5b6104658a828b01610369565b965050604088015167ffffffffffffffff811115610486576104856101c1565b5b6104928a828b01610369565b95505060606104a38a828b016103c0565b94505060806104b48a828b016103f6565b93505060a06104c58a828b016103f6565b92505060c06104d68a828b016103f6565b91505092959891949750929550565b600081519050919050565b600081905092915050565b6000610506826104e5565b61051081856104f0565b93506105208185602086016102fd565b80840191505092915050565b600061053882846104fb565b915081905092915050565b6000819050919050565b61055e610559826103d5565b610543565b82525050565b6000610570828561054d565b60208201915061058082846104fb565b91508190509392505050565b600081519050919050565b600081905092915050565b60006105ad8261058c565b6105b78185610597565b93506105c78185602086016102fd565b80840191505092915050565b60006105df82846105a2565b915081905092915050565b60805160a05160c0516130b36106106000396000505060005050600050506130b36000f3fe608060405234801561001057600080fd5b506004361061014d5760003560e01c80638a49d9b9116100c3578063c3f6caa51161007c578063c3f6caa5146103a5578063d1746c8c146103d5578063da284dcc146103f1578063db12b1a21461040f578063ddce84d71461043f578063ef7f0ab61461046f5761014d565b80638a49d9b9146102d157806391b7f5ed146102ed578063a035b1fe14610309578063a8b2b6da14610327578063b69ef8a814610357578063bbf5066c146103755761014d565b80632e1a7d4d116101155780632e1a7d4d1461020a5780633013ce2914610226578063697c50ab146102445780636a84a985146102605780637db80dba1461027e57806381d12c581461029a5761014d565b806301172a8a146101525780630375394c1461016e578063085d48831461018c5780631f79a1e9146101aa5780632ca12d4d146101da575b600080fd5b61016c60048036038101906101679190611e04565b61048d565b005b6101766105c5565b60405161018391906120af565b60405180910390f35b6101946108c8565b6040516101a191906120e0565b60405180910390f35b6101c460048036038101906101bf9190612127565b6108ee565b6040516101d19190612163565b60405180910390f35b6101f460048036038101906101ef91906121aa565b61090e565b60405161020191906121e6565b60405180910390f35b610224600480360381019061021f9190612127565b610926565b005b61022e610c2c565b60405161023b9190612260565b60405180910390f35b61025e600480360381019061025991906122e0565b610c52565b005b610268610e93565b60405161027591906121e6565b60405180910390f35b61029860048036038101906102939190612354565b610e99565b005b6102b460048036038101906102af9190612127565b6111df565b6040516102c89897969594939291906123fe565b60405180910390f35b6102eb60048036038101906102e691906126e1565b611364565b005b61030760048036038101906103029190612127565b61146e565b005b6103116114ff565b60405161031e91906121e6565b60405180910390f35b610341600480360381019061033c91906121aa565b611505565b60405161034e91906121e6565b60405180910390f35b61035f611517565b60405161036c91906121e6565b60405180910390f35b61038f600480360381019061038a91906121aa565b6115ba565b60405161039c91906121e6565b60405180910390f35b6103bf60048036038101906103ba919061278d565b6115d2565b6040516103cc9190612163565b60405180910390f35b6103ef60048036038101906103ea91906127ef565b611601565b005b6103f9611613565b60405161040691906121e6565b60405180910390f35b610429600480360381019061042491906121aa565b611619565b6040516104369190612866565b60405180910390f35b610459600480360381019061045491906121aa565b611631565b6040516104669190612938565b60405180910390f35b61047761185b565b60405161048491906121e6565b60405180910390f35b60006104aa60096000848152602001908152602001600020611861565b905060008167ffffffffffffffff8111156104c8576104c761248a565b5b6040519080825280602002602001820160405280156104f65781602001602082028036833780820191505090505b50905060005b8281101561058357610529816009600087815260200190815260200160002061187690919063ffffffff16565b82828151811061053c5761053b61295a565b5b602002602001019073ffffffffffffffffffffffffffffffffffffffff16908173ffffffffffffffffffffffffffffffffffffffff168152505080806001019150506104fc565b5060005b828110156105bf576105b28282815181106105a5576105a461295a565b5b6020026020010151611890565b8080600101915050610587565b50505050565b60606000805b600c5481101561061957600b600082815260200190815260200160002060060160009054906101000a900460ff1661060c578180610608906129b8565b9250505b80806001019150506105cb565b5060008167ffffffffffffffff8111156106365761063561248a565b5b60405190808252806020026020018201604052801561066f57816020015b61065c611d5d565b8152602001906001900390816106545790505b5090506000805b600c548110156108be57600b600082815260200190815260200160002060060160009054906101000a900460ff166108b157600b600082815260200190815260200160002060405180610100016040529081600082015481526020016001820160009054906101000a900473ffffffffffffffffffffffffffffffffffffffff1673ffffffffffffffffffffffffffffffffffffffff1673ffffffffffffffffffffffffffffffffffffffff1681526020016002820154815260200160038201805461074190612a2f565b80601f016020809104026020016040519081016040528092919081815260200182805461076d90612a2f565b80156107ba5780601f1061078f576101008083540402835291602001916107ba565b820191906000526020600020905b81548152906001019060200180831161079d57829003601f168201915b505050505081526020016004820180546107d390612a2f565b80601f01602080910402602001604051908101604052809291908181526020018280546107ff90612a2f565b801561084c5780601f106108215761010080835404028352916020019161084c565b820191906000526020600020905b81548152906001019060200180831161082f57829003601f168201915b50505050508152602001600582015481526020016006820160009054906101000a900460ff161515151581526020016007820154815250508383815181106108975761089661295a565b5b602002602001018190525081806108ad906129b8565b9250505b8080600101915050610676565b5081935050505090565b600460009054906101000a900473ffffffffffffffffffffffffffffffffffffffff1681565b60006020528060005260406000206000915054906101000a900460ff1681565b600a6020528060005260406000206000915090505481565b600460009054906101000a900473ffffffffffffffffffffffffffffffffffffffff1673ffffffffffffffffffffffffffffffffffffffff163373ffffffffffffffffffffffffffffffffffffffff16146109ad576040517feb79da3b00000000000000000000000000000000000000000000000000000000815260040160405180910390fd5b600081036109e7576040517f1f2a200500000000000000000000000000000000000000000000000000000000815260040160405180910390fd5b80600560009054906101000a900473ffffffffffffffffffffffffffffffffffffffff1673ffffffffffffffffffffffffffffffffffffffff166370a08231306040518263ffffffff1660e01b8152600401610a4391906120e0565b602060405180830381865afa158015610a60573d6000803e3d6000fd5b505050506040513d601f19601f82011682018060405250810190610a849190612a75565b10610abb576040517ff4d678b800000000000000000000000000000000000000000000000000000000815260040160405180910390fd5b6000600560009054906101000a900473ffffffffffffffffffffffffffffffffffffffff1673ffffffffffffffffffffffffffffffffffffffff1663a9059cbb600460009054906101000a900473ffffffffffffffffffffffffffffffffffffffff16846040518363ffffffff1660e01b8152600401610b3c929190612aa2565b6020604051808303816000875af1158015610b5b573d6000803e3d6000fd5b505050506040513d601f19601f82011682018060405250810190610b7f9190612af7565b905080610bb8576040517f90b8ec1800000000000000000000000000000000000000000000000000000000815260040160405180910390fd5b600460009054906101000a900473ffffffffffffffffffffffffffffffffffffffff1673ffffffffffffffffffffffffffffffffffffffff167f7fcf532c15f0a6db0bd6d0e038bea71d30d808c7d98cb3bf7268a95bf5081b6583604051610c2091906121e6565b60405180910390a25050565b600560009054906101000a900473ffffffffffffffffffffffffffffffffffffffff1681565b600460009054906101000a900473ffffffffffffffffffffffffffffffffffffffff1673ffffffffffffffffffffffffffffffffffffffff163373ffffffffffffffffffffffffffffffffffffffff1614610cd9576040517feb79da3b00000000000000000000000000000000000000000000000000000000815260040160405180910390fd5b6000600b600086815260200190815260200160002060010160009054906101000a900473ffffffffffffffffffffffffffffffffffffffff169050610d788160096000600860008673ffffffffffffffffffffffffffffffffffffffff1673ffffffffffffffffffffffffffffffffffffffff1681526020019081526020016000205481526020019081526020016000206118e990919063ffffffff16565b50610d9e816009600087815260200190815260200160002061191990919063ffffffff16565b5083600860008373ffffffffffffffffffffffffffffffffffffffff1673ffffffffffffffffffffffffffffffffffffffff168152602001908152602001600020819055506000600b6000878152602001908152602001600020905060018160060160006101000a81548160ff0219169083151502179055508383826004019182610e2a929190612cd1565b5060065442610e399190612da1565b81600701819055507fdf181bb520891106198cb4c185db844040eae66fcd29d0473204a40197ea23c486858560065442610e739190612da1565b604051610e839493929190612e11565b60405180910390a1505050505050565b600c5481565b600754610ea533611949565b1015610edd576040517f72746f1000000000000000000000000000000000000000000000000000000000815260040160405180910390fd5b6000600560009054906101000a900473ffffffffffffffffffffffffffffffffffffffff1673ffffffffffffffffffffffffffffffffffffffff166323b872dd33306003546040518463ffffffff1660e01b8152600401610f4093929190612e51565b6020604051808303816000875af1158015610f5f573d6000803e3d6000fd5b505050506040513d601f19601f82011682018060405250810190610f839190612af7565b905080610fbc576040517f90b8ec1800000000000000000000000000000000000000000000000000000000815260040160405180910390fd5b600c54600a60003373ffffffffffffffffffffffffffffffffffffffff1673ffffffffffffffffffffffffffffffffffffffff16815260200190815260200160002081905550604051806101000160405280600c5481526020013373ffffffffffffffffffffffffffffffffffffffff16815260200185815260200184848080601f016020809104026020016040519081016040528093929190818152602001838380828437600081840152601f19601f8201169050808301925050505050505081526020016040518060200160405280600081525081526020014281526020016000151581526020016000815250600b6000600c5481526020019081526020016000206000820151816000015560208201518160010160006101000a81548173ffffffffffffffffffffffffffffffffffffffff021916908373ffffffffffffffffffffffffffffffffffffffff1602179055506040820151816002015560608201518160030190816111309190612e88565b5060808201518160040190816111469190612e88565b5060a0820151816005015560c08201518160060160006101000a81548160ff02191690831515021790555060e082015181600701559050507ffb8a49d750cf39e10d648a04a08026bff2035a225def3b707a925d6fbbbb0ca5600c54858585426040516111b7959493929190612f5a565b60405180910390a16001600c60008282546111d29190612da1565b9250508190555050505050565b600b6020528060005260406000206000915090508060000154908060010160009054906101000a900473ffffffffffffffffffffffffffffffffffffffff169080600201549080600301805461123490612a2f565b80601f016020809104026020016040519081016040528092919081815260200182805461126090612a2f565b80156112ad5780601f10611282576101008083540402835291602001916112ad565b820191906000526020600020905b81548152906001019060200180831161129057829003601f168201915b5050505050908060040180546112c290612a2f565b80601f01602080910402602001604051908101604052809291908181526020018280546112ee90612a2f565b801561133b5780601f106113105761010080835404028352916020019161133b565b820191906000526020600020905b81548152906001019060200180831161131e57829003601f168201915b5050505050908060050154908060060160009054906101000a900460ff16908060070154905088565b600460009054906101000a900473ffffffffffffffffffffffffffffffffffffffff1673ffffffffffffffffffffffffffffffffffffffff163373ffffffffffffffffffffffffffffffffffffffff16146113eb576040517feb79da3b00000000000000000000000000000000000000000000000000000000815260040160405180910390fd5b60005b84518110156114675761145a85828151811061140d5761140c61295a565b5b60200260200101518583815181106114285761142761295a565b5b60200260200101518585858181106114435761144261295a565b5b90506020028101906114559190612fb7565b610c52565b80806001019150506113ee565b5050505050565b600460009054906101000a900473ffffffffffffffffffffffffffffffffffffffff1673ffffffffffffffffffffffffffffffffffffffff163373ffffffffffffffffffffffffffffffffffffffff16146114f5576040517feb79da3b00000000000000000000000000000000000000000000000000000000815260040160405180910390fd5b8060038190555050565b60035481565b600061151082611949565b9050919050565b6000600560009054906101000a900473ffffffffffffffffffffffffffffffffffffffff1673ffffffffffffffffffffffffffffffffffffffff166370a08231306040518263ffffffff1660e01b815260040161157491906120e0565b602060405180830381865afa158015611591573d6000803e3d6000fd5b505050506040513d601f19601f820116820180604052508101906115b59190612a75565b905090565b60016020528060005260406000206000915090505481565b60026020528160005260406000206020528060005260406000206000915091509054906101000a900460ff1681565b61160d84848484611992565b50505050565b60065481565b60086020528060005260406000206000915090505481565b611639611d5d565b600b6000600a60008573ffffffffffffffffffffffffffffffffffffffff1673ffffffffffffffffffffffffffffffffffffffff16815260200190815260200160002054815260200190815260200160002060405180610100016040529081600082015481526020016001820160009054906101000a900473ffffffffffffffffffffffffffffffffffffffff1673ffffffffffffffffffffffffffffffffffffffff1673ffffffffffffffffffffffffffffffffffffffff1681526020016002820154815260200160038201805461171190612a2f565b80601f016020809104026020016040519081016040528092919081815260200182805461173d90612a2f565b801561178a5780601f1061175f5761010080835404028352916020019161178a565b820191906000526020600020905b81548152906001019060200180831161176d57829003601f168201915b505050505081526020016004820180546117a390612a2f565b80601f01602080910402602001604051908101604052809291908181526020018280546117cf90612a2f565b801561181c5780601f106117f15761010080835404028352916020019161181c565b820191906000526020600020905b8154815290600101906020018083116117ff57829003601f168201915b50505050508152602001600582015481526020016006820160009054906101000a900460ff161515151581526020016007820154815250509050919050565b60075481565b600061186f82600001611b7a565b9050919050565b60006118858360000183611b8b565b60001c905092915050565b60018060008373ffffffffffffffffffffffffffffffffffffffff1673ffffffffffffffffffffffffffffffffffffffff16815260200190815260200160002060008282546118df919061301a565b9250508190555050565b6000611911836000018373ffffffffffffffffffffffffffffffffffffffff1660001b611bb6565b905092915050565b6000611941836000018373ffffffffffffffffffffffffffffffffffffffff1660001b611cca565b905092915050565b6000600160008373ffffffffffffffffffffffffffffffffffffffff1673ffffffffffffffffffffffffffffffffffffffff168152602001908152602001600020549050919050565b600260003373ffffffffffffffffffffffffffffffffffffffff1673ffffffffffffffffffffffffffffffffffffffff16815260200190815260200160002060008573ffffffffffffffffffffffffffffffffffffffff1673ffffffffffffffffffffffffffffffffffffffff16815260200190815260200160002060009054906101000a900460ff1615611a53576040517f7ab104eb00000000000000000000000000000000000000000000000000000000815260040160405180910390fd5b600160008573ffffffffffffffffffffffffffffffffffffffff1673ffffffffffffffffffffffffffffffffffffffff1681526020019081526020016000206000815480929190611aa3906129b8565b91905055506001600260003373ffffffffffffffffffffffffffffffffffffffff1673ffffffffffffffffffffffffffffffffffffffff16815260200190815260200160002060008673ffffffffffffffffffffffffffffffffffffffff1673ffffffffffffffffffffffffffffffffffffffff16815260200190815260200160002060006101000a81548160ff0219169083151502179055507ff786e7f77ede00a02a5464f8f0555798f42ba99a4a920ef2778db8d75e4656f782604051611b6c91906121e6565b60405180910390a150505050565b600081600001805490509050919050565b6000826000018281548110611ba357611ba261295a565b5b9060005260206000200154905092915050565b60008083600101600084815260200190815260200160002054905060008114611cbe576000600182611be8919061301a565b9050600060018660000180549050611c00919061301a565b9050808214611c6f576000866000018281548110611c2157611c2061295a565b5b9060005260206000200154905080876000018481548110611c4557611c4461295a565b5b90600052602060002001819055508387600101600083815260200190815260200160002081905550505b85600001805480611c8357611c8261304e565b5b600190038181906000526020600020016000905590558560010160008681526020019081526020016000206000905560019350505050611cc4565b60009150505b92915050565b6000611cd68383611d3a565b611d2f578260000182908060018154018082558091505060019003906000526020600020016000909190919091505582600001805490508360010160008481526020019081526020016000208190555060019050611d34565b600090505b92915050565b600080836001016000848152602001908152602001600020541415905092915050565b60405180610100016040528060008152602001600073ffffffffffffffffffffffffffffffffffffffff16815260200160008152602001606081526020016060815260200160008152602001600015158152602001600081525090565b6000604051905090565b600080fd5b600080fd5b6000819050919050565b611de181611dce565b8114611dec57600080fd5b50565b600081359050611dfe81611dd8565b92915050565b600060208284031215611e1a57611e19611dc4565b5b6000611e2884828501611def565b91505092915050565b600081519050919050565b600082825260208201905092915050565b6000819050602082019050919050565b6000819050919050565b611e7081611e5d565b82525050565b600073ffffffffffffffffffffffffffffffffffffffff82169050919050565b6000611ea182611e76565b9050919050565b611eb181611e96565b82525050565b600081519050919050565b600082825260208201905092915050565b60005b83811015611ef1578082015181840152602081019050611ed6565b60008484015250505050565b6000601f19601f8301169050919050565b6000611f1982611eb7565b611f238185611ec2565b9350611f33818560208601611ed3565b611f3c81611efd565b840191505092915050565b60008115159050919050565b611f5c81611f47565b82525050565b600061010083016000830151611f7b6000860182611e67565b506020830151611f8e6020860182611ea8565b506040830151611fa16040860182611e67565b5060608301518482036060860152611fb98282611f0e565b91505060808301518482036080860152611fd38282611f0e565b91505060a0830151611fe860a0860182611e67565b5060c0830151611ffb60c0860182611f53565b5060e083015161200e60e0860182611e67565b508091505092915050565b60006120258383611f62565b905092915050565b6000602082019050919050565b600061204582611e31565b61204f8185611e3c565b93508360208202850161206185611e4d565b8060005b8581101561209d578484038952815161207e8582612019565b94506120898361202d565b925060208a01995050600181019050612065565b50829750879550505050505092915050565b600060208201905081810360008301526120c9818461203a565b905092915050565b6120da81611e96565b82525050565b60006020820190506120f560008301846120d1565b92915050565b61210481611e5d565b811461210f57600080fd5b50565b600081359050612121816120fb565b92915050565b60006020828403121561213d5761213c611dc4565b5b600061214b84828501612112565b91505092915050565b61215d81611f47565b82525050565b60006020820190506121786000830184612154565b92915050565b61218781611e96565b811461219257600080fd5b50565b6000813590506121a48161217e565b92915050565b6000602082840312156121c0576121bf611dc4565b5b60006121ce84828501612195565b91505092915050565b6121e081611e5d565b82525050565b60006020820190506121fb60008301846121d7565b92915050565b6000819050919050565b600061222661222161221c84611e76565b612201565b611e76565b9050919050565b60006122388261220b565b9050919050565b600061224a8261222d565b9050919050565b61225a8161223f565b82525050565b60006020820190506122756000830184612251565b92915050565b600080fd5b600080fd5b600080fd5b60008083601f8401126122a05761229f61227b565b5b8235905067ffffffffffffffff8111156122bd576122bc612280565b5b6020830191508360018202830111156122d9576122d8612285565b5b9250929050565b600080600080606085870312156122fa576122f9611dc4565b5b600061230887828801612112565b945050602061231987828801611def565b935050604085013567ffffffffffffffff81111561233a57612339611dc9565b5b6123468782880161228a565b925092505092959194509250565b60008060006040848603121561236d5761236c611dc4565b5b600061237b86828701612112565b935050602084013567ffffffffffffffff81111561239c5761239b611dc9565b5b6123a88682870161228a565b92509250509250925092565b600082825260208201905092915050565b60006123d082611eb7565b6123da81856123b4565b93506123ea818560208601611ed3565b6123f381611efd565b840191505092915050565b600061010082019050612414600083018b6121d7565b612421602083018a6120d1565b61242e60408301896121d7565b818103606083015261244081886123c5565b9050818103608083015261245481876123c5565b905061246360a08301866121d7565b61247060c0830185612154565b61247d60e08301846121d7565b9998505050505050505050565b7f4e487b7100000000000000000000000000000000000000000000000000000000600052604160045260246000fd5b6124c282611efd565b810181811067ffffffffffffffff821117156124e1576124e061248a565b5b80604052505050565b60006124f4611dba565b905061250082826124b9565b919050565b600067ffffffffffffffff8211156125205761251f61248a565b5b602082029050602081019050919050565b600061254461253f84612505565b6124ea565b9050808382526020820190506020840283018581111561256757612566612285565b5b835b81811015612590578061257c8882612112565b845260208401935050602081019050612569565b5050509392505050565b600082601f8301126125af576125ae61227b565b5b81356125bf848260208601612531565b91505092915050565b600067ffffffffffffffff8211156125e3576125e261248a565b5b602082029050602081019050919050565b6000612607612602846125c8565b6124ea565b9050808382526020820190506020840283018581111561262a57612629612285565b5b835b81811015612653578061263f8882611def565b84526020840193505060208101905061262c565b5050509392505050565b600082601f8301126126725761267161227b565b5b81356126828482602086016125f4565b91505092915050565b60008083601f8401126126a1576126a061227b565b5b8235905067ffffffffffffffff8111156126be576126bd612280565b5b6020830191508360208202830111156126da576126d9612285565b5b9250929050565b600080600080606085870312156126fb576126fa611dc4565b5b600085013567ffffffffffffffff81111561271957612718611dc9565b5b6127258782880161259a565b945050602085013567ffffffffffffffff81111561274657612745611dc9565b5b6127528782880161265d565b935050604085013567ffffffffffffffff81111561277357612772611dc9565b5b61277f8782880161268b565b925092505092959194509250565b600080604083850312156127a4576127a3611dc4565b5b60006127b285828601612195565b92505060206127c385828601612195565b9150509250929050565b6000819050826020600802820111156127e9576127e8612285565b5b92915050565b600080600080610160858703121561280a57612809611dc4565b5b600061281887828801612195565b945050602061282987828801612112565b935050604061283a87828801612112565b925050606061284b878288016127cd565b91505092959194509250565b61286081611dce565b82525050565b600060208201905061287b6000830184612857565b92915050565b60006101008301600083015161289a6000860182611e67565b5060208301516128ad6020860182611ea8565b5060408301516128c06040860182611e67565b50606083015184820360608601526128d88282611f0e565b915050608083015184820360808601526128f28282611f0e565b91505060a083015161290760a0860182611e67565b5060c083015161291a60c0860182611f53565b5060e083015161292d60e0860182611e67565b508091505092915050565b600060208201905081810360008301526129528184612881565b905092915050565b7f4e487b7100000000000000000000000000000000000000000000000000000000600052603260045260246000fd5b7f4e487b7100000000000000000000000000000000000000000000000000000000600052601160045260246000fd5b60006129c382611e5d565b91507fffffffffffffffffffffffffffffffffffffffffffffffffffffffffffffffff82036129f5576129f4612989565b5b600182019050919050565b7f4e487b7100000000000000000000000000000000000000000000000000000000600052602260045260246000fd5b60006002820490506001821680612a4757607f821691505b602082108103612a5a57612a59612a00565b5b50919050565b600081519050612a6f816120fb565b92915050565b600060208284031215612a8b57612a8a611dc4565b5b6000612a9984828501612a60565b91505092915050565b6000604082019050612ab760008301856120d1565b612ac460208301846121d7565b9392505050565b612ad481611f47565b8114612adf57600080fd5b50565b600081519050612af181612acb565b92915050565b600060208284031215612b0d57612b0c611dc4565b5b6000612b1b84828501612ae2565b91505092915050565b600082905092915050565b60008190508160005260206000209050919050565b60006020601f8301049050919050565b600082821b905092915050565b600060088302612b917fffffffffffffffffffffffffffffffffffffffffffffffffffffffffffffffff82612b54565b612b9b8683612b54565b95508019841693508086168417925050509392505050565b6000612bce612bc9612bc484611e5d565b612201565b611e5d565b9050919050565b6000819050919050565b612be883612bb3565b612bfc612bf482612bd5565b848454612b61565b825550505050565b600090565b612c11612c04565b612c1c818484612bdf565b505050565b5b81811015612c4057612c35600082612c09565b600181019050612c22565b5050565b601f821115612c8557612c5681612b2f565b612c5f84612b44565b81016020851015612c6e578190505b612c82612c7a85612b44565b830182612c21565b50505b505050565b600082821c905092915050565b6000612ca860001984600802612c8a565b1980831691505092915050565b6000612cc18383612c97565b9150826002028217905092915050565b612cdb8383612b24565b67ffffffffffffffff811115612cf457612cf361248a565b5b612cfe8254612a2f565b612d09828285612c44565b6000601f831160018114612d385760008415612d26578287013590505b612d308582612cb5565b865550612d98565b601f198416612d4686612b2f565b60005b82811015612d6e57848901358255600182019150602085019450602081019050612d49565b86831015612d8b5784890135612d87601f891682612c97565b8355505b6001600288020188555050505b50505050505050565b6000612dac82611e5d565b9150612db783611e5d565b9250828201905080821115612dcf57612dce612989565b5b92915050565b82818337600083830152505050565b6000612df083856123b4565b9350612dfd838584612dd5565b612e0683611efd565b840190509392505050565b6000606082019050612e2660008301876121d7565b8181036020830152612e39818587612de4565b9050612e4860408301846121d7565b95945050505050565b6000606082019050612e6660008301866120d1565b612e7360208301856120d1565b612e8060408301846121d7565b949350505050565b612e9182611eb7565b67ffffffffffffffff811115612eaa57612ea961248a565b5b612eb48254612a2f565b612ebf828285612c44565b600060209050601f831160018114612ef25760008415612ee0578287015190505b612eea8582612cb5565b865550612f52565b601f198416612f0086612b2f565b60005b82811015612f2857848901518255600182019150602085019450602081019050612f03565b86831015612f455784890151612f41601f891682612c97565b8355505b6001600288020188555050505b505050505050565b6000608082019050612f6f60008301886121d7565b612f7c60208301876121d7565b8181036040830152612f8f818587612de4565b9050612f9e60608301846121d7565b9695505050505050565b600080fd5b600080fd5b600080fd5b60008083356001602003843603038112612fd457612fd3612fa8565b5b80840192508235915067ffffffffffffffff821115612ff657612ff5612fad565b5b60208301925060018202360383131561301257613011612fb2565b5b509250929050565b600061302582611e5d565b915061303083611e5d565b925082820390508181111561304857613047612989565b5b92915050565b7f4e487b7100000000000000000000000000000000000000000000000000000000600052603160045260246000fdfea26469706673582212203fc28faa13ee7ced8699c93ef5e45edc165d0824915b537eb3723449880afa7a64736f6c634300081c0033",
  "linkReferences": {},
  "deployedLinkReferences": {}
}