{
  "_format": "hh-sol-artifact-1",
  "contractName": "ServiceProvider",
  "sourceName": "contracts/ServiceProvider.sol",
  "abi": [
    {
      "inputs": [
        {
          "internalType": "contract IWorldID",
          "name": "_worldId",
          "type": "address"
        },
        {
          "internalType": "string",
          "name": "_appId",
          "type": "string"
        },
        {
          "internalType": "string",
          "name": "_actionId",
          "type": "string"
        },
        {
          "internalType": "contract IERC20",
          "name": "_token",
          "type": "address"
        },
        {
          "internalType": "uint256",
          "name": "_price",
          "type": "uint256"
        },
        {
          "internalType": "uint256",
          "name": "_expirationTime",
          "type": "uint256"
        },
        {
          "internalType": "uint256",
          "name": "_minReputation",
          "type": "uint256"
        }
      ],
      "stateMutability": "nonpayable",
      "type": "constructor"
    },
    {
      "inputs": [],
      "name": "AlreadyRecommended",
      "type": "error"
    },
    {
      "inputs": [
        {
          "internalType": "uint256",
          "name": "nullifierHash",
          "type": "uint256"
        }
      ],
      "name": "DuplicateNullifier",
      "type": "error"
    },
    {
      "inputs": [],
      "name": "InsufficientBalance",
      "type": "error"
    },
    {
      "inputs": [],
      "name": "NotEnoughReputation",
      "type": "error"
    },
    {
      "inputs": [],
      "name": "OnlyProvider",
      "type": "error"
    },
    {
      "inputs": [],
      "name": "TransferFailed",
      "type": "error"
    },
    {
      "inputs": [],
      "name": "ZeroAmount",
      "type": "error"
    },
    {
      "anonymous": false,
      "inputs": [
        {
          "indexed": false,
          "internalType": "uint256",
          "name": "requestId",
          "type": "uint256"
        },
        {
          "indexed": false,
          "internalType": "uint256",
          "name": "serviceId",
          "type": "uint256"
        },
        {
          "indexed": false,
          "internalType": "string",
          "name": "encryptionKey",
          "type": "string"
        },
        {
          "indexed": false,
          "internalType": "uint256",
          "name": "timestamp",
          "type": "uint256"
        }
      ],
      "name": "NewServiceRequest",
      "type": "event"
    },
    {
      "anonymous": false,
      "inputs": [
        {
          "indexed": false,
          "internalType": "uint256",
          "name": "requestId",
          "type": "uint256"
        },
        {
          "indexed": false,
          "internalType": "string",
          "name": "encryptedConnectionDetails",
          "type": "string"
        },
        {
          "indexed": false,
          "internalType": "uint256",
          "name": "expiresAt",
          "type": "uint256"
        }
      ],
      "name": "ServiceFulfilled",
      "type": "event"
    },
    {
      "anonymous": false,
      "inputs": [
        {
          "indexed": false,
          "internalType": "uint256",
          "name": "nullifierHash",
          "type": "uint256"
        }
      ],
      "name": "Verified",
      "type": "event"
    },
    {
      "anonymous": false,
      "inputs": [
        {
          "indexed": true,
          "internalType": "address",
          "name": "provider",
          "type": "address"
        },
        {
          "indexed": false,
          "internalType": "uint256",
          "name": "amount",
          "type": "uint256"
        }
      ],
      "name": "Withdrawal",
      "type": "event"
    },
    {
      "inputs": [],
      "name": "balance",
      "outputs": [
        {
          "internalType": "uint256",
          "name": "",
          "type": "uint256"
        }
      ],
      "stateMutability": "view",
      "type": "function"
    },
    {
      "inputs": [
        {
          "internalType": "uint256[]",
          "name": "requestId",
          "type": "uint256[]"
        },
        {
          "internalType": "bytes32[]",
          "name": "groupId",
          "type": "bytes32[]"
        },
        {
          "internalType": "string[]",
          "name": "encryptedConnectionDetails",
          "type": "string[]"
        }
      ],
      "name": "batchFulfill",
      "outputs": [],
      "stateMutability": "nonpayable",
      "type": "function"
    },
    {
      "inputs": [],
      "name": "expirationTime",
      "outputs": [
        {
          "internalType": "uint256",
          "name": "",
          "type": "uint256"
        }
      ],
      "stateMutability": "view",
      "type": "function"
    },
    {
      "inputs": [
        {
          "internalType": "uint256",
          "name": "requestId",
          "type": "uint256"
        },
        {
          "internalType": "bytes32",
          "name": "groupId",
          "type": "bytes32"
        },
        {
          "internalType": "string",
          "name": "encryptedConnectionDetails",
          "type": "string"
        }
      ],
      "name": "fulfill",
      "outputs": [],
      "stateMutability": "nonpayable",
      "type": "function"
    },
    {
      "inputs": [
        {
          "internalType": "address",
          "name": "user",
          "type": "address"
        }
      ],
      "name": "getServiceRequestForUser",
      "outputs": [
        {
          "components": [
            {
              "internalType": "uint256",
              "name": "id",
              "type": "uint256"
            },
            {
              "internalType": "address",
              "name": "user",
              "type": "address"
            },
            {
              "internalType": "uint256",
              "name": "serviceId",
              "type": "uint256"
            },
            {
              "internalType": "string",
              "name": "encryptionKey",
              "type": "string"
            },
            {
              "internalType": "string",
              "name": "encryptedConnectionDetails",
              "type": "string"
            },
            {
              "internalType": "uint256",
              "name": "timestamp",
              "type": "uint256"
            },
            {
              "internalType": "bool",
              "name": "fulfilled",
              "type": "bool"
            },
            {
              "internalType": "uint256",
              "name": "expiresAt",
              "type": "uint256"
            }
          ],
          "internalType": "struct IServiceProviderStructs.ServiceRequest",
          "name": "",
          "type": "tuple"
        }
      ],
      "stateMutability": "view",
      "type": "function"
    },
    {
      "inputs": [],
      "name": "getUnfulfilledRequests",
      "outputs": [
        {
          "components": [
            {
              "internalType": "uint256",
              "name": "id",
              "type": "uint256"
            },
            {
              "internalType": "address",
              "name": "user",
              "type": "address"
            },
            {
              "internalType": "uint256",
              "name": "serviceId",
              "type": "uint256"
            },
            {
              "internalType": "string",
              "name": "encryptionKey",
              "type": "string"
            },
            {
              "internalType": "string",
              "name": "encryptedConnectionDetails",
              "type": "string"
            },
            {
              "internalType": "uint256",
              "name": "timestamp",
              "type": "uint256"
            },
            {
              "internalType": "bool",
              "name": "fulfilled",
              "type": "bool"
            },
            {
              "internalType": "uint256",
              "name": "expiresAt",
              "type": "uint256"
            }
          ],
          "internalType": "struct IServiceProviderStructs.ServiceRequest[]",
          "name": "",
          "type": "tuple[]"
        }
      ],
      "stateMutability": "view",
      "type": "function"
    },
    {
      "inputs": [],
      "name": "minReputation",
      "outputs": [
        {
          "internalType": "uint256",
          "name": "",
          "type": "uint256"
        }
      ],
      "stateMutability": "view",
      "type": "function"
    },
    {
      "inputs": [],
      "name": "nextRequestId",
      "outputs": [
        {
          "internalType": "uint256",
          "name": "",
          "type": "uint256"
        }
      ],
      "stateMutability": "view",
      "type": "function"
    },
    {
      "inputs": [
        {
          "internalType": "uint256",
          "name": "",
          "type": "uint256"
        }
      ],
      "name": "nullifierHashes",
      "outputs": [
        {
          "internalType": "bool",
          "name": "",
          "type": "bool"
        }
      ],
      "stateMutability": "view",
      "type": "function"
    },
    {
      "inputs": [],
      "name": "paymentToken",
      "outputs": [
        {
          "internalType": "contract IERC20",
          "name": "",
          "type": "address"
        }
      ],
      "stateMutability": "view",
      "type": "function"
    },
    {
      "inputs": [],
      "name": "price",
      "outputs": [
        {
          "internalType": "uint256",
          "name": "",
          "type": "uint256"
        }
      ],
      "stateMutability": "view",
      "type": "function"
    },
    {
      "inputs": [],
      "name": "provider",
      "outputs": [
        {
          "internalType": "address",
          "name": "",
          "type": "address"
        }
      ],
      "stateMutability": "view",
      "type": "function"
    },
    {
      "inputs": [
        {
          "internalType": "address",
          "name": "user",
          "type": "address"
        },
        {
          "internalType": "uint256",
          "name": "root",
          "type": "uint256"
        },
        {
          "internalType": "uint256",
          "name": "nullifierHash",
          "type": "uint256"
        },
        {
          "internalType": "uint256[8]",
          "name": "proof",
          "type": "uint256[8]"
        }
      ],
      "name": "recommend",
      "outputs": [],
      "stateMutability": "nonpayable",
      "type": "function"
    },
    {
      "inputs": [
        {
          "internalType": "address",
          "name": "",
          "type": "address"
        }
      ],
      "name": "recommendations",
      "outputs": [
        {
          "internalType": "uint256",
          "name": "",
          "type": "uint256"
        }
      ],
      "stateMutability": "view",
      "type": "function"
    },
    {
      "inputs": [
        {
          "internalType": "address",
          "name": "user",
          "type": "address"
        }
      ],
      "name": "recommendationsCount",
      "outputs": [
        {
          "internalType": "uint256",
          "name": "",
          "type": "uint256"
        }
      ],
      "stateMutability": "view",
      "type": "function"
    },
    {
      "inputs": [
        {
          "internalType": "address",
          "name": "",
          "type": "address"
        },
        {
          "internalType": "address",
          "name": "",
          "type": "address"
        }
      ],
      "name": "recommended",
      "outputs": [
        {
          "internalType": "bool",
          "name": "",
          "type": "bool"
        }
      ],
      "stateMutability": "view",
      "type": "function"
    },
    {
      "inputs": [
        {
          "internalType": "bytes32",
          "name": "groupId",
          "type": "bytes32"
        }
      ],
      "name": "reportGroupId",
      "outputs": [],
      "stateMutability": "nonpayable",
      "type": "function"
    },
    {
      "inputs": [
        {
          "internalType": "uint256",
          "name": "serviceId",
          "type": "uint256"
        },
        {
          "internalType": "string",
          "name": "encryptionKey",
          "type": "string"
        }
      ],
      "name": "requestService",
      "outputs": [],
      "stateMutability": "nonpayable",
      "type": "function"
    },
    {
      "inputs": [
        {
          "internalType": "uint256",
          "name": "",
          "type": "uint256"
        }
      ],
      "name": "requests",
      "outputs": [
        {
          "internalType": "uint256",
          "name": "id",
          "type": "uint256"
        },
        {
          "internalType": "address",
          "name": "user",
          "type": "address"
        },
        {
          "internalType": "uint256",
          "name": "serviceId",
          "type": "uint256"
        },
        {
          "internalType": "string",
          "name": "encryptionKey",
          "type": "string"
        },
        {
          "internalType": "string",
          "name": "encryptedConnectionDetails",
          "type": "string"
        },
        {
          "internalType": "uint256",
          "name": "timestamp",
          "type": "uint256"
        },
        {
          "internalType": "bool",
          "name": "fulfilled",
          "type": "bool"
        },
        {
          "internalType": "uint256",
          "name": "expiresAt",
          "type": "uint256"
        }
      ],
      "stateMutability": "view",
      "type": "function"
    },
    {
      "inputs": [
        {
          "internalType": "uint256",
          "name": "_price",
          "type": "uint256"
        }
      ],
      "name": "setPrice",
      "outputs": [],
      "stateMutability": "nonpayable",
      "type": "function"
    },
    {
      "inputs": [
        {
          "internalType": "address",
          "name": "",
          "type": "address"
        }
      ],
      "name": "userToGroupId",
      "outputs": [
        {
          "internalType": "bytes32",
          "name": "",
          "type": "bytes32"
        }
      ],
      "stateMutability": "view",
      "type": "function"
    },
    {
      "inputs": [
        {
          "internalType": "address",
          "name": "",
          "type": "address"
        }
      ],
      "name": "userToRequest",
      "outputs": [
        {
          "internalType": "uint256",
          "name": "",
          "type": "uint256"
        }
      ],
      "stateMutability": "view",
      "type": "function"
    },
    {
      "inputs": [
        {
          "internalType": "uint256",
          "name": "amount",
          "type": "uint256"
        }
      ],
      "name": "withdraw",
      "outputs": [],
      "stateMutability": "nonpayable",
      "type": "function"
    }
  ],
  "bytecode": "0x60e0604052600160c09081525034801561001857600080fd5b506040516135ac3803806135ac833981810160405281019061003a919061040b565b8686868273ffffffffffffffffffffffffffffffffffffffff1660808173ffffffffffffffffffffffffffffffffffffffff16815250506100ce6100a283604051602001610088919061052c565b60405160208183030381529060405261017b60201b60201c565b826040516020016100b4929190610564565b60405160208183030381529060405261017b60201b60201c565b60a0818152505050505083600560006101000a81548173ffffffffffffffffffffffffffffffffffffffff021916908373ffffffffffffffffffffffffffffffffffffffff16021790555033600460006101000a81548173ffffffffffffffffffffffffffffffffffffffff021916908373ffffffffffffffffffffffffffffffffffffffff160217905550826003819055508160068190555080600781905550505050505050506105ea565b600060088260405160200161019091906105d3565b6040516020818303038152906040528051906020012060001c901c9050919050565b6000604051905090565b600080fd5b600080fd5b600073ffffffffffffffffffffffffffffffffffffffff82169050919050565b60006101f1826101c6565b9050919050565b6000610203826101e6565b9050919050565b610213816101f8565b811461021e57600080fd5b50565b6000815190506102308161020a565b92915050565b600080fd5b600080fd5b6000601f19601f8301169050919050565b7f4e487b7100000000000000000000000000000000000000000000000000000000600052604160045260246000fd5b61028982610240565b810181811067ffffffffffffffff821117156102a8576102a7610251565b5b80604052505050565b60006102bb6101b2565b90506102c78282610280565b919050565b600067ffffffffffffffff8211156102e7576102e6610251565b5b6102f082610240565b9050602081019050919050565b60005b8381101561031b578082015181840152602081019050610300565b60008484015250505050565b600061033a610335846102cc565b6102b1565b9050828152602081018484840111156103565761035561023b565b5b6103618482856102fd565b509392505050565b600082601f83011261037e5761037d610236565b5b815161038e848260208601610327565b91505092915050565b60006103a2826101e6565b9050919050565b6103b281610397565b81146103bd57600080fd5b50565b6000815190506103cf816103a9565b92915050565b6000819050919050565b6103e8816103d5565b81146103f357600080fd5b50565b600081519050610405816103df565b92915050565b600080600080600080600060e0888a03121561042a576104296101bc565b5b60006104388a828b01610221565b975050602088015167ffffffffffffffff811115610459576104586101c1565b5b6104658a828b01610369565b965050604088015167ffffffffffffffff811115610486576104856101c1565b5b6104928a828b01610369565b95505060606104a38a828b016103c0565b94505060806104b48a828b016103f6565b93505060a06104c58a828b016103f6565b92505060c06104d68a828b016103f6565b91505092959891949750929550565b600081519050919050565b600081905092915050565b6000610506826104e5565b61051081856104f0565b93506105208185602086016102fd565b80840191505092915050565b600061053882846104fb565b915081905092915050565b6000819050919050565b61055e610559826103d5565b610543565b82525050565b6000610570828561054d565b60208201915061058082846104fb565b91508190509392505050565b600081519050919050565b600081905092915050565b60006105ad8261058c565b6105b78185610597565b93506105c78185602086016102fd565b80840191505092915050565b60006105df82846105a2565b915081905092915050565b60805160a05160c051612f9c610610600039600050506000505060005050612f9c6000f3fe608060405234801561001057600080fd5b506004361061014d5760003560e01c80638a49d9b9116100c3578063c3f6caa51161007c578063c3f6caa5146103a5578063d1746c8c146103d5578063da284dcc146103f1578063db12b1a21461040f578063ddce84d71461043f578063ef7f0ab61461046f5761014d565b80638a49d9b9146102d157806391b7f5ed146102ed578063a035b1fe14610309578063a8b2b6da14610327578063b69ef8a814610357578063bbf5066c146103755761014d565b80632e1a7d4d116101155780632e1a7d4d1461020a5780633013ce2914610226578063697c50ab146102445780636a84a985146102605780637db80dba1461027e57806381d12c581461029a5761014d565b806301172a8a146101525780630375394c1461016e578063085d48831461018c5780631f79a1e9146101aa5780632ca12d4d146101da575b600080fd5b61016c60048036038101906101679190611d24565b61048d565b005b6101766105c5565b6040516101839190611fcf565b60405180910390f35b6101946108c8565b6040516101a19190612000565b60405180910390f35b6101c460048036038101906101bf9190612047565b6108ee565b6040516101d19190612083565b60405180910390f35b6101f460048036038101906101ef91906120ca565b61090e565b6040516102019190612106565b60405180910390f35b610224600480360381019061021f9190612047565b610926565b005b61022e610c2c565b60405161023b9190612180565b60405180910390f35b61025e60048036038101906102599190612200565b610c52565b005b610268610e93565b6040516102759190612106565b60405180910390f35b61029860048036038101906102939190612274565b610e99565b005b6102b460048036038101906102af9190612047565b6110ff565b6040516102c898979695949392919061231e565b60405180910390f35b6102eb60048036038101906102e69190612601565b611284565b005b61030760048036038101906103029190612047565b61138e565b005b61031161141f565b60405161031e9190612106565b60405180910390f35b610341600480360381019061033c91906120ca565b611425565b60405161034e9190612106565b60405180910390f35b61035f611437565b60405161036c9190612106565b60405180910390f35b61038f600480360381019061038a91906120ca565b6114da565b60405161039c9190612106565b60405180910390f35b6103bf60048036038101906103ba91906126ad565b6114f2565b6040516103cc9190612083565b60405180910390f35b6103ef60048036038101906103ea919061270f565b611521565b005b6103f9611533565b6040516104069190612106565b60405180910390f35b610429600480360381019061042491906120ca565b611539565b6040516104369190612786565b60405180910390f35b610459600480360381019061045491906120ca565b611551565b6040516104669190612858565b60405180910390f35b61047761177b565b6040516104849190612106565b60405180910390f35b60006104aa60096000848152602001908152602001600020611781565b905060008167ffffffffffffffff8111156104c8576104c76123aa565b5b6040519080825280602002602001820160405280156104f65781602001602082028036833780820191505090505b50905060005b8281101561058357610529816009600087815260200190815260200160002061179690919063ffffffff16565b82828151811061053c5761053b61287a565b5b602002602001019073ffffffffffffffffffffffffffffffffffffffff16908173ffffffffffffffffffffffffffffffffffffffff168152505080806001019150506104fc565b5060005b828110156105bf576105b28282815181106105a5576105a461287a565b5b60200260200101516117b0565b8080600101915050610587565b50505050565b60606000805b600c5481101561061957600b600082815260200190815260200160002060060160009054906101000a900460ff1661060c578180610608906128d8565b9250505b80806001019150506105cb565b5060008167ffffffffffffffff811115610636576106356123aa565b5b60405190808252806020026020018201604052801561066f57816020015b61065c611c7d565b8152602001906001900390816106545790505b5090506000805b600c548110156108be57600b600082815260200190815260200160002060060160009054906101000a900460ff166108b157600b600082815260200190815260200160002060405180610100016040529081600082015481526020016001820160009054906101000a900473ffffffffffffffffffffffffffffffffffffffff1673ffffffffffffffffffffffffffffffffffffffff1673ffffffffffffffffffffffffffffffffffffffff168152602001600282015481526020016003820180546107419061294f565b80601f016020809104026020016040519081016040528092919081815260200182805461076d9061294f565b80156107ba5780601f1061078f576101008083540402835291602001916107ba565b820191906000526020600020905b81548152906001019060200180831161079d57829003601f168201915b505050505081526020016004820180546107d39061294f565b80601f01602080910402602001604051908101604052809291908181526020018280546107ff9061294f565b801561084c5780601f106108215761010080835404028352916020019161084c565b820191906000526020600020905b81548152906001019060200180831161082f57829003601f168201915b50505050508152602001600582015481526020016006820160009054906101000a900460ff161515151581526020016007820154815250508383815181106108975761089661287a565b5b602002602001018190525081806108ad906128d8565b9250505b8080600101915050610676565b5081935050505090565b600460009054906101000a900473ffffffffffffffffffffffffffffffffffffffff1681565b60006020528060005260406000206000915054906101000a900460ff1681565b600a6020528060005260406000206000915090505481565b600460009054906101000a900473ffffffffffffffffffffffffffffffffffffffff1673ffffffffffffffffffffffffffffffffffffffff163373ffffffffffffffffffffffffffffffffffffffff16146109ad576040517feb79da3b00000000000000000000000000000000000000000000000000000000815260040160405180910390fd5b600081036109e7576040517f1f2a200500000000000000000000000000000000000000000000000000000000815260040160405180910390fd5b80600560009054906101000a900473ffffffffffffffffffffffffffffffffffffffff1673ffffffffffffffffffffffffffffffffffffffff166370a08231306040518263ffffffff1660e01b8152600401610a439190612000565b602060405180830381865afa158015610a60573d6000803e3d6000fd5b505050506040513d601f19601f82011682018060405250810190610a849190612995565b10610abb576040517ff4d678b800000000000000000000000000000000000000000000000000000000815260040160405180910390fd5b6000600560009054906101000a900473ffffffffffffffffffffffffffffffffffffffff1673ffffffffffffffffffffffffffffffffffffffff1663a9059cbb600460009054906101000a900473ffffffffffffffffffffffffffffffffffffffff16846040518363ffffffff1660e01b8152600401610b3c9291906129c2565b6020604051808303816000875af1158015610b5b573d6000803e3d6000fd5b505050506040513d601f19601f82011682018060405250810190610b7f9190612a17565b905080610bb8576040517f90b8ec1800000000000000000000000000000000000000000000000000000000815260040160405180910390fd5b600460009054906101000a900473ffffffffffffffffffffffffffffffffffffffff1673ffffffffffffffffffffffffffffffffffffffff167f7fcf532c15f0a6db0bd6d0e038bea71d30d808c7d98cb3bf7268a95bf5081b6583604051610c209190612106565b60405180910390a25050565b600560009054906101000a900473ffffffffffffffffffffffffffffffffffffffff1681565b600460009054906101000a900473ffffffffffffffffffffffffffffffffffffffff1673ffffffffffffffffffffffffffffffffffffffff163373ffffffffffffffffffffffffffffffffffffffff1614610cd9576040517feb79da3b00000000000000000000000000000000000000000000000000000000815260040160405180910390fd5b6000600b600086815260200190815260200160002060010160009054906101000a900473ffffffffffffffffffffffffffffffffffffffff169050610d788160096000600860008673ffffffffffffffffffffffffffffffffffffffff1673ffffffffffffffffffffffffffffffffffffffff16815260200190815260200160002054815260200190815260200160002061180990919063ffffffff16565b50610d9e816009600087815260200190815260200160002061183990919063ffffffff16565b5083600860008373ffffffffffffffffffffffffffffffffffffffff1673ffffffffffffffffffffffffffffffffffffffff168152602001908152602001600020819055506000600b6000878152602001908152602001600020905060018160060160006101000a81548160ff0219169083151502179055508383826004019182610e2a929190612bf1565b5060065442610e399190612cc1565b81600701819055507fdf181bb520891106198cb4c185db844040eae66fcd29d0473204a40197ea23c486858560065442610e739190612cc1565b604051610e839493929190612d31565b60405180910390a1505050505050565b600c5481565b600754610ea533611869565b1015610edd576040517f72746f1000000000000000000000000000000000000000000000000000000000815260040160405180910390fd5b600c54600a60003373ffffffffffffffffffffffffffffffffffffffff1673ffffffffffffffffffffffffffffffffffffffff16815260200190815260200160002081905550604051806101000160405280600c5481526020013373ffffffffffffffffffffffffffffffffffffffff16815260200184815260200183838080601f016020809104026020016040519081016040528093929190818152602001838380828437600081840152601f19601f8201169050808301925050505050505081526020016040518060200160405280600081525081526020014281526020016000151581526020016000815250600b6000600c5481526020019081526020016000206000820151816000015560208201518160010160006101000a81548173ffffffffffffffffffffffffffffffffffffffff021916908373ffffffffffffffffffffffffffffffffffffffff1602179055506040820151816002015560608201518160030190816110519190612d71565b5060808201518160040190816110679190612d71565b5060a0820151816005015560c08201518160060160006101000a81548160ff02191690831515021790555060e082015181600701559050507ffb8a49d750cf39e10d648a04a08026bff2035a225def3b707a925d6fbbbb0ca5600c54848484426040516110d8959493929190612e43565b60405180910390a16001600c60008282546110f39190612cc1565b92505081905550505050565b600b6020528060005260406000206000915090508060000154908060010160009054906101000a900473ffffffffffffffffffffffffffffffffffffffff16908060020154908060030180546111549061294f565b80601f01602080910402602001604051908101604052809291908181526020018280546111809061294f565b80156111cd5780601f106111a2576101008083540402835291602001916111cd565b820191906000526020600020905b8154815290600101906020018083116111b057829003601f168201915b5050505050908060040180546111e29061294f565b80601f016020809104026020016040519081016040528092919081815260200182805461120e9061294f565b801561125b5780601f106112305761010080835404028352916020019161125b565b820191906000526020600020905b81548152906001019060200180831161123e57829003601f168201915b5050505050908060050154908060060160009054906101000a900460ff16908060070154905088565b600460009054906101000a900473ffffffffffffffffffffffffffffffffffffffff1673ffffffffffffffffffffffffffffffffffffffff163373ffffffffffffffffffffffffffffffffffffffff161461130b576040517feb79da3b00000000000000000000000000000000000000000000000000000000815260040160405180910390fd5b60005b84518110156113875761137a85828151811061132d5761132c61287a565b5b60200260200101518583815181106113485761134761287a565b5b60200260200101518585858181106113635761136261287a565b5b90506020028101906113759190612ea0565b610c52565b808060010191505061130e565b5050505050565b600460009054906101000a900473ffffffffffffffffffffffffffffffffffffffff1673ffffffffffffffffffffffffffffffffffffffff163373ffffffffffffffffffffffffffffffffffffffff1614611415576040517feb79da3b00000000000000000000000000000000000000000000000000000000815260040160405180910390fd5b8060038190555050565b60035481565b600061143082611869565b9050919050565b6000600560009054906101000a900473ffffffffffffffffffffffffffffffffffffffff1673ffffffffffffffffffffffffffffffffffffffff166370a08231306040518263ffffffff1660e01b81526004016114949190612000565b602060405180830381865afa1580156114b1573d6000803e3d6000fd5b505050506040513d601f19601f820116820180604052508101906114d59190612995565b905090565b60016020528060005260406000206000915090505481565b60026020528160005260406000206020528060005260406000206000915091509054906101000a900460ff1681565b61152d848484846118b2565b50505050565b60065481565b60086020528060005260406000206000915090505481565b611559611c7d565b600b6000600a60008573ffffffffffffffffffffffffffffffffffffffff1673ffffffffffffffffffffffffffffffffffffffff16815260200190815260200160002054815260200190815260200160002060405180610100016040529081600082015481526020016001820160009054906101000a900473ffffffffffffffffffffffffffffffffffffffff1673ffffffffffffffffffffffffffffffffffffffff1673ffffffffffffffffffffffffffffffffffffffff168152602001600282015481526020016003820180546116319061294f565b80601f016020809104026020016040519081016040528092919081815260200182805461165d9061294f565b80156116aa5780601f1061167f576101008083540402835291602001916116aa565b820191906000526020600020905b81548152906001019060200180831161168d57829003601f168201915b505050505081526020016004820180546116c39061294f565b80601f01602080910402602001604051908101604052809291908181526020018280546116ef9061294f565b801561173c5780601f106117115761010080835404028352916020019161173c565b820191906000526020600020905b81548152906001019060200180831161171f57829003601f168201915b50505050508152602001600582015481526020016006820160009054906101000a900460ff161515151581526020016007820154815250509050919050565b60075481565b600061178f82600001611a9a565b9050919050565b60006117a58360000183611aab565b60001c905092915050565b60018060008373ffffffffffffffffffffffffffffffffffffffff1673ffffffffffffffffffffffffffffffffffffffff16815260200190815260200160002060008282546117ff9190612f03565b9250508190555050565b6000611831836000018373ffffffffffffffffffffffffffffffffffffffff1660001b611ad6565b905092915050565b6000611861836000018373ffffffffffffffffffffffffffffffffffffffff1660001b611bea565b905092915050565b6000600160008373ffffffffffffffffffffffffffffffffffffffff1673ffffffffffffffffffffffffffffffffffffffff168152602001908152602001600020549050919050565b600260003373ffffffffffffffffffffffffffffffffffffffff1673ffffffffffffffffffffffffffffffffffffffff16815260200190815260200160002060008573ffffffffffffffffffffffffffffffffffffffff1673ffffffffffffffffffffffffffffffffffffffff16815260200190815260200160002060009054906101000a900460ff1615611973576040517f7ab104eb00000000000000000000000000000000000000000000000000000000815260040160405180910390fd5b600160008573ffffffffffffffffffffffffffffffffffffffff1673ffffffffffffffffffffffffffffffffffffffff16815260200190815260200160002060008154809291906119c3906128d8565b91905055506001600260003373ffffffffffffffffffffffffffffffffffffffff1673ffffffffffffffffffffffffffffffffffffffff16815260200190815260200160002060008673ffffffffffffffffffffffffffffffffffffffff1673ffffffffffffffffffffffffffffffffffffffff16815260200190815260200160002060006101000a81548160ff0219169083151502179055507ff786e7f77ede00a02a5464f8f0555798f42ba99a4a920ef2778db8d75e4656f782604051611a8c9190612106565b60405180910390a150505050565b600081600001805490509050919050565b6000826000018281548110611ac357611ac261287a565b5b9060005260206000200154905092915050565b60008083600101600084815260200190815260200160002054905060008114611bde576000600182611b089190612f03565b9050600060018660000180549050611b209190612f03565b9050808214611b8f576000866000018281548110611b4157611b4061287a565b5b9060005260206000200154905080876000018481548110611b6557611b6461287a565b5b90600052602060002001819055508387600101600083815260200190815260200160002081905550505b85600001805480611ba357611ba2612f37565b5b600190038181906000526020600020016000905590558560010160008681526020019081526020016000206000905560019350505050611be4565b60009150505b92915050565b6000611bf68383611c5a565b611c4f578260000182908060018154018082558091505060019003906000526020600020016000909190919091505582600001805490508360010160008481526020019081526020016000208190555060019050611c54565b600090505b92915050565b600080836001016000848152602001908152602001600020541415905092915050565b60405180610100016040528060008152602001600073ffffffffffffffffffffffffffffffffffffffff16815260200160008152602001606081526020016060815260200160008152602001600015158152602001600081525090565b6000604051905090565b600080fd5b600080fd5b6000819050919050565b611d0181611cee565b8114611d0c57600080fd5b50565b600081359050611d1e81611cf8565b92915050565b600060208284031215611d3a57611d39611ce4565b5b6000611d4884828501611d0f565b91505092915050565b600081519050919050565b600082825260208201905092915050565b6000819050602082019050919050565b6000819050919050565b611d9081611d7d565b82525050565b600073ffffffffffffffffffffffffffffffffffffffff82169050919050565b6000611dc182611d96565b9050919050565b611dd181611db6565b82525050565b600081519050919050565b600082825260208201905092915050565b60005b83811015611e11578082015181840152602081019050611df6565b60008484015250505050565b6000601f19601f8301169050919050565b6000611e3982611dd7565b611e438185611de2565b9350611e53818560208601611df3565b611e5c81611e1d565b840191505092915050565b60008115159050919050565b611e7c81611e67565b82525050565b600061010083016000830151611e9b6000860182611d87565b506020830151611eae6020860182611dc8565b506040830151611ec16040860182611d87565b5060608301518482036060860152611ed98282611e2e565b91505060808301518482036080860152611ef38282611e2e565b91505060a0830151611f0860a0860182611d87565b5060c0830151611f1b60c0860182611e73565b5060e0830151611f2e60e0860182611d87565b508091505092915050565b6000611f458383611e82565b905092915050565b6000602082019050919050565b6000611f6582611d51565b611f6f8185611d5c565b935083602082028501611f8185611d6d565b8060005b85811015611fbd5784840389528151611f9e8582611f39565b9450611fa983611f4d565b925060208a01995050600181019050611f85565b50829750879550505050505092915050565b60006020820190508181036000830152611fe98184611f5a565b905092915050565b611ffa81611db6565b82525050565b60006020820190506120156000830184611ff1565b92915050565b61202481611d7d565b811461202f57600080fd5b50565b6000813590506120418161201b565b92915050565b60006020828403121561205d5761205c611ce4565b5b600061206b84828501612032565b91505092915050565b61207d81611e67565b82525050565b60006020820190506120986000830184612074565b92915050565b6120a781611db6565b81146120b257600080fd5b50565b6000813590506120c48161209e565b92915050565b6000602082840312156120e0576120df611ce4565b5b60006120ee848285016120b5565b91505092915050565b61210081611d7d565b82525050565b600060208201905061211b60008301846120f7565b92915050565b6000819050919050565b600061214661214161213c84611d96565b612121565b611d96565b9050919050565b60006121588261212b565b9050919050565b600061216a8261214d565b9050919050565b61217a8161215f565b82525050565b60006020820190506121956000830184612171565b92915050565b600080fd5b600080fd5b600080fd5b60008083601f8401126121c0576121bf61219b565b5b8235905067ffffffffffffffff8111156121dd576121dc6121a0565b5b6020830191508360018202830111156121f9576121f86121a5565b5b9250929050565b6000806000806060858703121561221a57612219611ce4565b5b600061222887828801612032565b945050602061223987828801611d0f565b935050604085013567ffffffffffffffff81111561225a57612259611ce9565b5b612266878288016121aa565b925092505092959194509250565b60008060006040848603121561228d5761228c611ce4565b5b600061229b86828701612032565b935050602084013567ffffffffffffffff8111156122bc576122bb611ce9565b5b6122c8868287016121aa565b92509250509250925092565b600082825260208201905092915050565b60006122f082611dd7565b6122fa81856122d4565b935061230a818560208601611df3565b61231381611e1d565b840191505092915050565b600061010082019050612334600083018b6120f7565b612341602083018a611ff1565b61234e60408301896120f7565b818103606083015261236081886122e5565b9050818103608083015261237481876122e5565b905061238360a08301866120f7565b61239060c0830185612074565b61239d60e08301846120f7565b9998505050505050505050565b7f4e487b7100000000000000000000000000000000000000000000000000000000600052604160045260246000fd5b6123e282611e1d565b810181811067ffffffffffffffff82111715612401576124006123aa565b5b80604052505050565b6000612414611cda565b905061242082826123d9565b919050565b600067ffffffffffffffff8211156124405761243f6123aa565b5b602082029050602081019050919050565b600061246461245f84612425565b61240a565b90508083825260208201905060208402830185811115612487576124866121a5565b5b835b818110156124b0578061249c8882612032565b845260208401935050602081019050612489565b5050509392505050565b600082601f8301126124cf576124ce61219b565b5b81356124df848260208601612451565b91505092915050565b600067ffffffffffffffff821115612503576125026123aa565b5b602082029050602081019050919050565b6000612527612522846124e8565b61240a565b9050808382526020820190506020840283018581111561254a576125496121a5565b5b835b81811015612573578061255f8882611d0f565b84526020840193505060208101905061254c565b5050509392505050565b600082601f8301126125925761259161219b565b5b81356125a2848260208601612514565b91505092915050565b60008083601f8401126125c1576125c061219b565b5b8235905067ffffffffffffffff8111156125de576125dd6121a0565b5b6020830191508360208202830111156125fa576125f96121a5565b5b9250929050565b6000806000806060858703121561261b5761261a611ce4565b5b600085013567ffffffffffffffff81111561263957612638611ce9565b5b612645878288016124ba565b945050602085013567ffffffffffffffff81111561266657612665611ce9565b5b6126728782880161257d565b935050604085013567ffffffffffffffff81111561269357612692611ce9565b5b61269f878288016125ab565b925092505092959194509250565b600080604083850312156126c4576126c3611ce4565b5b60006126d2858286016120b5565b92505060206126e3858286016120b5565b9150509250929050565b600081905082602060080282011115612709576127086121a5565b5b92915050565b600080600080610160858703121561272a57612729611ce4565b5b6000612738878288016120b5565b945050602061274987828801612032565b935050604061275a87828801612032565b925050606061276b878288016126ed565b91505092959194509250565b61278081611cee565b82525050565b600060208201905061279b6000830184612777565b92915050565b6000610100830160008301516127ba6000860182611d87565b5060208301516127cd6020860182611dc8565b5060408301516127e06040860182611d87565b50606083015184820360608601526127f88282611e2e565b915050608083015184820360808601526128128282611e2e565b91505060a083015161282760a0860182611d87565b5060c083015161283a60c0860182611e73565b5060e083015161284d60e0860182611d87565b508091505092915050565b6000602082019050818103600083015261287281846127a1565b905092915050565b7f4e487b7100000000000000000000000000000000000000000000000000000000600052603260045260246000fd5b7f4e487b7100000000000000000000000000000000000000000000000000000000600052601160045260246000fd5b60006128e382611d7d565b91507fffffffffffffffffffffffffffffffffffffffffffffffffffffffffffffffff8203612915576129146128a9565b5b600182019050919050565b7f4e487b7100000000000000000000000000000000000000000000000000000000600052602260045260246000fd5b6000600282049050600182168061296757607f821691505b60208210810361297a57612979612920565b5b50919050565b60008151905061298f8161201b565b92915050565b6000602082840312156129ab576129aa611ce4565b5b60006129b984828501612980565b91505092915050565b60006040820190506129d76000830185611ff1565b6129e460208301846120f7565b9392505050565b6129f481611e67565b81146129ff57600080fd5b50565b600081519050612a11816129eb565b92915050565b600060208284031215612a2d57612a2c611ce4565b5b6000612a3b84828501612a02565b91505092915050565b600082905092915050565b60008190508160005260206000209050919050565b60006020601f8301049050919050565b600082821b905092915050565b600060088302612ab17fffffffffffffffffffffffffffffffffffffffffffffffffffffffffffffffff82612a74565b612abb8683612a74565b95508019841693508086168417925050509392505050565b6000612aee612ae9612ae484611d7d565b612121565b611d7d565b9050919050565b6000819050919050565b612b0883612ad3565b612b1c612b1482612af5565b848454612a81565b825550505050565b600090565b612b31612b24565b612b3c818484612aff565b505050565b5b81811015612b6057612b55600082612b29565b600181019050612b42565b5050565b601f821115612ba557612b7681612a4f565b612b7f84612a64565b81016020851015612b8e578190505b612ba2612b9a85612a64565b830182612b41565b50505b505050565b600082821c905092915050565b6000612bc860001984600802612baa565b1980831691505092915050565b6000612be18383612bb7565b9150826002028217905092915050565b612bfb8383612a44565b67ffffffffffffffff811115612c1457612c136123aa565b5b612c1e825461294f565b612c29828285612b64565b6000601f831160018114612c585760008415612c46578287013590505b612c508582612bd5565b865550612cb8565b601f198416612c6686612a4f565b60005b82811015612c8e57848901358255600182019150602085019450602081019050612c69565b86831015612cab5784890135612ca7601f891682612bb7565b8355505b6001600288020188555050505b50505050505050565b6000612ccc82611d7d565b9150612cd783611d7d565b9250828201905080821115612cef57612cee6128a9565b5b92915050565b82818337600083830152505050565b6000612d1083856122d4565b9350612d1d838584612cf5565b612d2683611e1d565b840190509392505050565b6000606082019050612d4660008301876120f7565b8181036020830152612d59818587612d04565b9050612d6860408301846120f7565b95945050505050565b612d7a82611dd7565b67ffffffffffffffff811115612d9357612d926123aa565b5b612d9d825461294f565b612da8828285612b64565b600060209050601f831160018114612ddb5760008415612dc9578287015190505b612dd38582612bd5565b865550612e3b565b601f198416612de986612a4f565b60005b82811015612e1157848901518255600182019150602085019450602081019050612dec565b86831015612e2e5784890151612e2a601f891682612bb7565b8355505b6001600288020188555050505b505050505050565b6000608082019050612e5860008301886120f7565b612e6560208301876120f7565b8181036040830152612e78818587612d04565b9050612e8760608301846120f7565b9695505050505050565b600080fd5b600080fd5b600080fd5b60008083356001602003843603038112612ebd57612ebc612e91565b5b80840192508235915067ffffffffffffffff821115612edf57612ede612e96565b5b602083019250600182023603831315612efb57612efa612e9b565b5b509250929050565b6000612f0e82611d7d565b9150612f1983611d7d565b9250828203905081811115612f3157612f306128a9565b5b92915050565b7f4e487b7100000000000000000000000000000000000000000000000000000000600052603160045260246000fdfea2646970667358221220b83d4892070abf751bcf5a16864ed21a3260ad5c2377117db1fe5747c9b5a32c64736f6c634300081c0033",
  "linkReferences": {},
  "deployedLinkReferences": {}
}