{
  "_format": "hh-sol-artifact-1",
  "contractName": "ServiceProvider",
  "sourceName": "contracts/ServiceProvider.sol",
  "abi": [
    {
      "inputs": [
        {
          "internalType": "contract IWorldID",
          "name": "_worldId",
          "type": "address"
        },
        {
          "internalType": "string",
          "name": "_appId",
          "type": "string"
        },
        {
          "internalType": "string",
          "name": "_actionId",
          "type": "string"
        },
        {
          "internalType": "contract IERC20",
          "name": "_token",
          "type": "address"
        },
        {
          "internalType": "uint256",
          "name": "_price",
          "type": "uint256"
        },
        {
          "internalType": "uint256",
          "name": "_expirationTime",
          "type": "uint256"
        }
      ],
      "stateMutability": "nonpayable",
      "type": "constructor"
    },
    {
      "inputs": [
        {
          "internalType": "uint256",
          "name": "nullifierHash",
          "type": "uint256"
        }
      ],
      "name": "DuplicateNullifier",
      "type": "error"
    },
    {
      "inputs": [],
      "name": "InsufficientBalance",
      "type": "error"
    },
    {
      "inputs": [],
      "name": "NotEnoughReputation",
      "type": "error"
    },
    {
      "inputs": [],
      "name": "OnlyProvider",
      "type": "error"
    },
    {
      "inputs": [],
      "name": "TransferFailed",
      "type": "error"
    },
    {
      "inputs": [],
      "name": "ZeroAmount",
      "type": "error"
    },
    {
      "anonymous": false,
      "inputs": [
        {
          "indexed": true,
          "internalType": "address",
          "name": "user",
          "type": "address"
        },
        {
          "indexed": false,
          "internalType": "bytes",
          "name": "encryptedConnectionDetails",
          "type": "bytes"
        },
        {
          "indexed": false,
          "internalType": "uint256",
          "name": "expiresAt",
          "type": "uint256"
        }
      ],
      "name": "ServiceFulfilled",
      "type": "event"
    },
    {
      "anonymous": false,
      "inputs": [
        {
          "indexed": true,
          "internalType": "address",
          "name": "user",
          "type": "address"
        },
        {
          "indexed": false,
          "internalType": "uint256",
          "name": "serviceId",
          "type": "uint256"
        },
        {
          "indexed": false,
          "internalType": "bytes",
          "name": "encryptionKey",
          "type": "bytes"
        },
        {
          "indexed": false,
          "internalType": "uint256",
          "name": "timestamp",
          "type": "uint256"
        }
      ],
      "name": "ServiceRequest",
      "type": "event"
    },
    {
      "anonymous": false,
      "inputs": [
        {
          "indexed": false,
          "internalType": "uint256",
          "name": "nullifierHash",
          "type": "uint256"
        }
      ],
      "name": "Verified",
      "type": "event"
    },
    {
      "anonymous": false,
      "inputs": [
        {
          "indexed": true,
          "internalType": "address",
          "name": "provider",
          "type": "address"
        },
        {
          "indexed": false,
          "internalType": "uint256",
          "name": "amount",
          "type": "uint256"
        }
      ],
      "name": "Withdrawal",
      "type": "event"
    },
    {
      "inputs": [],
      "name": "balance",
      "outputs": [
        {
          "internalType": "uint256",
          "name": "",
          "type": "uint256"
        }
      ],
      "stateMutability": "view",
      "type": "function"
    },
    {
      "inputs": [],
      "name": "expirationTime",
      "outputs": [
        {
          "internalType": "uint256",
          "name": "",
          "type": "uint256"
        }
      ],
      "stateMutability": "view",
      "type": "function"
    },
    {
      "inputs": [
        {
          "internalType": "address",
          "name": "user",
          "type": "address"
        },
        {
          "internalType": "bytes32",
          "name": "groupId",
          "type": "bytes32"
        },
        {
          "internalType": "bytes",
          "name": "encryptedConnectionDetails",
          "type": "bytes"
        }
      ],
      "name": "fulfillOrder",
      "outputs": [],
      "stateMutability": "nonpayable",
      "type": "function"
    },
    {
      "inputs": [
        {
          "internalType": "address",
          "name": "",
          "type": "address"
        }
      ],
      "name": "givenRecommendationsCount",
      "outputs": [
        {
          "internalType": "uint256",
          "name": "",
          "type": "uint256"
        }
      ],
      "stateMutability": "view",
      "type": "function"
    },
    {
      "inputs": [
        {
          "internalType": "bytes32",
          "name": "",
          "type": "bytes32"
        },
        {
          "internalType": "uint256",
          "name": "",
          "type": "uint256"
        }
      ],
      "name": "groupIdToUsers",
      "outputs": [
        {
          "internalType": "address",
          "name": "",
          "type": "address"
        }
      ],
      "stateMutability": "view",
      "type": "function"
    },
    {
      "inputs": [
        {
          "internalType": "uint256",
          "name": "",
          "type": "uint256"
        }
      ],
      "name": "nullifierHashes",
      "outputs": [
        {
          "internalType": "bool",
          "name": "",
          "type": "bool"
        }
      ],
      "stateMutability": "view",
      "type": "function"
    },
    {
      "inputs": [],
      "name": "paymentToken",
      "outputs": [
        {
          "internalType": "contract IERC20",
          "name": "",
          "type": "address"
        }
      ],
      "stateMutability": "view",
      "type": "function"
    },
    {
      "inputs": [],
      "name": "price",
      "outputs": [
        {
          "internalType": "uint256",
          "name": "",
          "type": "uint256"
        }
      ],
      "stateMutability": "view",
      "type": "function"
    },
    {
      "inputs": [],
      "name": "provider",
      "outputs": [
        {
          "internalType": "address",
          "name": "",
          "type": "address"
        }
      ],
      "stateMutability": "view",
      "type": "function"
    },
    {
      "inputs": [
        {
          "internalType": "address",
          "name": "user",
          "type": "address"
        },
        {
          "internalType": "uint256",
          "name": "root",
          "type": "uint256"
        },
        {
          "internalType": "uint256",
          "name": "nullifierHash",
          "type": "uint256"
        },
        {
          "internalType": "uint256[8]",
          "name": "proof",
          "type": "uint256[8]"
        }
      ],
      "name": "recommend",
      "outputs": [],
      "stateMutability": "nonpayable",
      "type": "function"
    },
    {
      "inputs": [
        {
          "internalType": "address",
          "name": "",
          "type": "address"
        }
      ],
      "name": "recommendations",
      "outputs": [
        {
          "internalType": "uint256",
          "name": "",
          "type": "uint256"
        }
      ],
      "stateMutability": "view",
      "type": "function"
    },
    {
      "inputs": [
        {
          "internalType": "address",
          "name": "user",
          "type": "address"
        }
      ],
      "name": "recommendationsCount",
      "outputs": [
        {
          "internalType": "uint256",
          "name": "",
          "type": "uint256"
        }
      ],
      "stateMutability": "view",
      "type": "function"
    },
    {
      "inputs": [
        {
          "internalType": "bytes32",
          "name": "groupId",
          "type": "bytes32"
        }
      ],
      "name": "reportGroupId",
      "outputs": [],
      "stateMutability": "nonpayable",
      "type": "function"
    },
    {
      "inputs": [
        {
          "internalType": "uint256",
          "name": "serviceId",
          "type": "uint256"
        },
        {
          "internalType": "bytes",
          "name": "encryptionKey",
          "type": "bytes"
        }
      ],
      "name": "requestService",
      "outputs": [],
      "stateMutability": "nonpayable",
      "type": "function"
    },
    {
      "inputs": [
        {
          "internalType": "uint256",
          "name": "_price",
          "type": "uint256"
        }
      ],
      "name": "setPrice",
      "outputs": [],
      "stateMutability": "nonpayable",
      "type": "function"
    },
    {
      "inputs": [
        {
          "internalType": "address",
          "name": "",
          "type": "address"
        }
      ],
      "name": "userToGroupId",
      "outputs": [
        {
          "internalType": "bytes32",
          "name": "",
          "type": "bytes32"
        }
      ],
      "stateMutability": "view",
      "type": "function"
    },
    {
      "inputs": [
        {
          "internalType": "uint256",
          "name": "amount",
          "type": "uint256"
        }
      ],
      "name": "withdraw",
      "outputs": [],
      "stateMutability": "nonpayable",
      "type": "function"
    }
  ],
  "bytecode": "0x60e0604052600160c09081525034801561001857600080fd5b50604051611ee0380380611ee0833981810160405281019061003a9190610403565b8585858273ffffffffffffffffffffffffffffffffffffffff1660808173ffffffffffffffffffffffffffffffffffffffff16815250506100ce6100a283604051602001610088919061050f565b60405160208183030381529060405261017360201b60201c565b826040516020016100b4929190610547565b60405160208183030381529060405261017360201b60201c565b60a0818152505050505082600560006101000a81548173ffffffffffffffffffffffffffffffffffffffff021916908373ffffffffffffffffffffffffffffffffffffffff16021790555033600460006101000a81548173ffffffffffffffffffffffffffffffffffffffff021916908373ffffffffffffffffffffffffffffffffffffffff16021790555081600381905550806006819055505050505050506105cd565b600060088260405160200161018891906105b6565b6040516020818303038152906040528051906020012060001c901c9050919050565b6000604051905090565b600080fd5b600080fd5b600073ffffffffffffffffffffffffffffffffffffffff82169050919050565b60006101e9826101be565b9050919050565b60006101fb826101de565b9050919050565b61020b816101f0565b811461021657600080fd5b50565b60008151905061022881610202565b92915050565b600080fd5b600080fd5b6000601f19601f8301169050919050565b7f4e487b7100000000000000000000000000000000000000000000000000000000600052604160045260246000fd5b61028182610238565b810181811067ffffffffffffffff821117156102a05761029f610249565b5b80604052505050565b60006102b36101aa565b90506102bf8282610278565b919050565b600067ffffffffffffffff8211156102df576102de610249565b5b6102e882610238565b9050602081019050919050565b60005b838110156103135780820151818401526020810190506102f8565b60008484015250505050565b600061033261032d846102c4565b6102a9565b90508281526020810184848401111561034e5761034d610233565b5b6103598482856102f5565b509392505050565b600082601f8301126103765761037561022e565b5b815161038684826020860161031f565b91505092915050565b600061039a826101de565b9050919050565b6103aa8161038f565b81146103b557600080fd5b50565b6000815190506103c7816103a1565b92915050565b6000819050919050565b6103e0816103cd565b81146103eb57600080fd5b50565b6000815190506103fd816103d7565b92915050565b60008060008060008060c087890312156104205761041f6101b4565b5b600061042e89828a01610219565b965050602087015167ffffffffffffffff81111561044f5761044e6101b9565b5b61045b89828a01610361565b955050604087015167ffffffffffffffff81111561047c5761047b6101b9565b5b61048889828a01610361565b945050606061049989828a016103b8565b93505060806104aa89828a016103ee565b92505060a06104bb89828a016103ee565b9150509295509295509295565b600081519050919050565b600081905092915050565b60006104e9826104c8565b6104f381856104d3565b93506105038185602086016102f5565b80840191505092915050565b600061051b82846104de565b915081905092915050565b6000819050919050565b61054161053c826103cd565b610526565b82525050565b60006105538285610530565b60208201915061056382846104de565b91508190509392505050565b600081519050919050565b600081905092915050565b60006105908261056f565b61059a818561057a565b93506105aa8185602086016102f5565b80840191505092915050565b60006105c28284610585565b915081905092915050565b60805160a05160c0516118e46105fc6000396000610e1201526000610e5c01526000610dd501526118e46000f3fe608060405234801561001057600080fd5b506004361061010b5760003560e01c8063a035b1fe116100a2578063d1746c8c11610071578063d1746c8c146102b8578063da284dcc146102d4578063db12b1a2146102f2578063e6ecb26514610322578063f14ec59d146103525761010b565b8063a035b1fe1461021c578063a8b2b6da1461023a578063b69ef8a81461026a578063bbf5066c146102885761010b565b80633013ce29116100de5780633013ce29146101965780634523bf0f146101b45780635d931c3c146101e457806391b7f5ed146102005761010b565b806301172a8a14610110578063085d48831461012c5780631f79a1e91461014a5780632e1a7d4d1461017a575b600080fd5b61012a60048036038101906101259190611056565b61036e565b005b61013461044b565b60405161014191906110c4565b60405180910390f35b610164600480360381019061015f9190611115565b610471565b604051610171919061115d565b60405180910390f35b610194600480360381019061018f9190611115565b610491565b005b61019e610797565b6040516101ab91906111d7565b60405180910390f35b6101ce60048036038101906101c991906111f2565b6107bd565b6040516101db91906110c4565b60405180910390f35b6101fe60048036038101906101f99190611297565b61080b565b005b61021a60048036038101906102159190611115565b610987565b005b610224610a18565b6040516102319190611306565b60405180910390f35b610254600480360381019061024f919061134d565b610a1e565b6040516102619190611306565b60405180910390f35b610272610a30565b60405161027f9190611306565b60405180910390f35b6102a2600480360381019061029d919061134d565b610ad3565b6040516102af9190611306565b60405180910390f35b6102d260048036038101906102cd919061139c565b610aeb565b005b6102dc610afd565b6040516102e99190611306565b60405180910390f35b61030c6004803603810190610307919061134d565b610b03565b6040516103199190611413565b60405180910390f35b61033c6004803603810190610337919061134d565b610b1b565b6040516103499190611306565b60405180910390f35b61036c6004803603810190610367919061142e565b610b33565b005b60006008600083815260200190815260200160002080548060200260200160405190810160405280929190818152602001828054801561040357602002820191906000526020600020905b8160009054906101000a900473ffffffffffffffffffffffffffffffffffffffff1673ffffffffffffffffffffffffffffffffffffffff16815260200190600101908083116103b9575b5050505050905060005b81518110156104465761043982828151811061042c5761042b6114a2565b5b6020026020010151610d1e565b808060010191505061040d565b505050565b600460009054906101000a900473ffffffffffffffffffffffffffffffffffffffff1681565b60006020528060005260406000206000915054906101000a900460ff1681565b600460009054906101000a900473ffffffffffffffffffffffffffffffffffffffff1673ffffffffffffffffffffffffffffffffffffffff163373ffffffffffffffffffffffffffffffffffffffff1614610518576040517feb79da3b00000000000000000000000000000000000000000000000000000000815260040160405180910390fd5b60008103610552576040517f1f2a200500000000000000000000000000000000000000000000000000000000815260040160405180910390fd5b80600560009054906101000a900473ffffffffffffffffffffffffffffffffffffffff1673ffffffffffffffffffffffffffffffffffffffff166370a08231306040518263ffffffff1660e01b81526004016105ae91906110c4565b602060405180830381865afa1580156105cb573d6000803e3d6000fd5b505050506040513d601f19601f820116820180604052508101906105ef91906114e6565b10610626576040517ff4d678b800000000000000000000000000000000000000000000000000000000815260040160405180910390fd5b6000600560009054906101000a900473ffffffffffffffffffffffffffffffffffffffff1673ffffffffffffffffffffffffffffffffffffffff1663a9059cbb600460009054906101000a900473ffffffffffffffffffffffffffffffffffffffff16846040518363ffffffff1660e01b81526004016106a7929190611513565b6020604051808303816000875af11580156106c6573d6000803e3d6000fd5b505050506040513d601f19601f820116820180604052508101906106ea9190611568565b905080610723576040517f90b8ec1800000000000000000000000000000000000000000000000000000000815260040160405180910390fd5b600460009054906101000a900473ffffffffffffffffffffffffffffffffffffffff1673ffffffffffffffffffffffffffffffffffffffff167f7fcf532c15f0a6db0bd6d0e038bea71d30d808c7d98cb3bf7268a95bf5081b658360405161078b9190611306565b60405180910390a25050565b600560009054906101000a900473ffffffffffffffffffffffffffffffffffffffff1681565b600860205281600052604060002081815481106107d957600080fd5b906000526020600020016000915091509054906101000a900473ffffffffffffffffffffffffffffffffffffffff1681565b600161081633610d66565b101561084e576040517f72746f1000000000000000000000000000000000000000000000000000000000815260040160405180910390fd5b6000600560009054906101000a900473ffffffffffffffffffffffffffffffffffffffff1673ffffffffffffffffffffffffffffffffffffffff166323b872dd33306003546040518463ffffffff1660e01b81526004016108b193929190611595565b6020604051808303816000875af11580156108d0573d6000803e3d6000fd5b505050506040513d601f19601f820116820180604052508101906108f49190611568565b90508061092d576040517f90b8ec1800000000000000000000000000000000000000000000000000000000815260040160405180910390fd5b3373ffffffffffffffffffffffffffffffffffffffff167f97758d4d61f672d03f5c8146428259c2c46befbcd8f2c664456bd209fa7652cb85858542604051610979949392919061162a565b60405180910390a250505050565b600460009054906101000a900473ffffffffffffffffffffffffffffffffffffffff1673ffffffffffffffffffffffffffffffffffffffff163373ffffffffffffffffffffffffffffffffffffffff1614610a0e576040517feb79da3b00000000000000000000000000000000000000000000000000000000815260040160405180910390fd5b8060038190555050565b60035481565b6000610a2982610d66565b9050919050565b6000600560009054906101000a900473ffffffffffffffffffffffffffffffffffffffff1673ffffffffffffffffffffffffffffffffffffffff166370a08231306040518263ffffffff1660e01b8152600401610a8d91906110c4565b602060405180830381865afa158015610aaa573d6000803e3d6000fd5b505050506040513d601f19601f82011682018060405250810190610ace91906114e6565b905090565b60016020528060005260406000206000915090505481565b610af784848484610d71565b50505050565b60065481565b60076020528060005260406000206000915090505481565b60026020528060005260406000206000915090505481565b600460009054906101000a900473ffffffffffffffffffffffffffffffffffffffff1673ffffffffffffffffffffffffffffffffffffffff163373ffffffffffffffffffffffffffffffffffffffff1614610bba576040517feb79da3b00000000000000000000000000000000000000000000000000000000815260040160405180910390fd5b82600760008673ffffffffffffffffffffffffffffffffffffffff1673ffffffffffffffffffffffffffffffffffffffff1681526020019081526020016000205414610cb95760086000848152602001908152602001600020849080600181540180825580915050600190039060005260206000200160009091909190916101000a81548173ffffffffffffffffffffffffffffffffffffffff021916908373ffffffffffffffffffffffffffffffffffffffff16021790555082600760008673ffffffffffffffffffffffffffffffffffffffff1673ffffffffffffffffffffffffffffffffffffffff168152602001908152602001600020819055505b8373ffffffffffffffffffffffffffffffffffffffff167f1c466b3a721042a35748ababc913b6d2cbc3076f53220e9c73184370ed9c4f4e838360065442610d019190611699565b604051610d10939291906116cd565b60405180910390a250505050565b6000600160008373ffffffffffffffffffffffffffffffffffffffff1673ffffffffffffffffffffffffffffffffffffffff1681526020019081526020016000208190555050565b600060649050919050565b60008083815260200190815260200160002060009054906101000a900460ff1615610dd357816040517f78ffaa26000000000000000000000000000000000000000000000000000000008152600401610dca9190611306565b60405180910390fd5b7f000000000000000000000000000000000000000000000000000000000000000073ffffffffffffffffffffffffffffffffffffffff16633bc778e3847f0000000000000000000000000000000000000000000000000000000000000000610e5988604051602001610e459190611747565b604051602081830303815290604052610fdf565b867f0000000000000000000000000000000000000000000000000000000000000000876040518763ffffffff1660e01b8152600401610e9d9695949392919061177c565b60006040518083038186803b158015610eb557600080fd5b505afa158015610ec9573d6000803e3d6000fd5b50505050600160008084815260200190815260200160002060006101000a81548160ff021916908315150217905550600160008573ffffffffffffffffffffffffffffffffffffffff1673ffffffffffffffffffffffffffffffffffffffff1681526020019081526020016000206000815480929190610f48906117de565b9190505550600260003373ffffffffffffffffffffffffffffffffffffffff1673ffffffffffffffffffffffffffffffffffffffff1681526020019081526020016000206000815480929190610f9d906117de565b91905055507ff786e7f77ede00a02a5464f8f0555798f42ba99a4a920ef2778db8d75e4656f782604051610fd19190611306565b60405180910390a150505050565b6000600882604051602001610ff49190611897565b6040516020818303038152906040528051906020012060001c901c9050919050565b600080fd5b600080fd5b6000819050919050565b61103381611020565b811461103e57600080fd5b50565b6000813590506110508161102a565b92915050565b60006020828403121561106c5761106b611016565b5b600061107a84828501611041565b91505092915050565b600073ffffffffffffffffffffffffffffffffffffffff82169050919050565b60006110ae82611083565b9050919050565b6110be816110a3565b82525050565b60006020820190506110d960008301846110b5565b92915050565b6000819050919050565b6110f2816110df565b81146110fd57600080fd5b50565b60008135905061110f816110e9565b92915050565b60006020828403121561112b5761112a611016565b5b600061113984828501611100565b91505092915050565b60008115159050919050565b61115781611142565b82525050565b6000602082019050611172600083018461114e565b92915050565b6000819050919050565b600061119d61119861119384611083565b611178565b611083565b9050919050565b60006111af82611182565b9050919050565b60006111c1826111a4565b9050919050565b6111d1816111b6565b82525050565b60006020820190506111ec60008301846111c8565b92915050565b6000806040838503121561120957611208611016565b5b600061121785828601611041565b925050602061122885828601611100565b9150509250929050565b600080fd5b600080fd5b600080fd5b60008083601f84011261125757611256611232565b5b8235905067ffffffffffffffff81111561127457611273611237565b5b6020830191508360018202830111156112905761128f61123c565b5b9250929050565b6000806000604084860312156112b0576112af611016565b5b60006112be86828701611100565b935050602084013567ffffffffffffffff8111156112df576112de61101b565b5b6112eb86828701611241565b92509250509250925092565b611300816110df565b82525050565b600060208201905061131b60008301846112f7565b92915050565b61132a816110a3565b811461133557600080fd5b50565b60008135905061134781611321565b92915050565b60006020828403121561136357611362611016565b5b600061137184828501611338565b91505092915050565b6000819050826020600802820111156113965761139561123c565b5b92915050565b60008060008061016085870312156113b7576113b6611016565b5b60006113c587828801611338565b94505060206113d687828801611100565b93505060406113e787828801611100565b92505060606113f88782880161137a565b91505092959194509250565b61140d81611020565b82525050565b60006020820190506114286000830184611404565b92915050565b6000806000806060858703121561144857611447611016565b5b600061145687828801611338565b945050602061146787828801611041565b935050604085013567ffffffffffffffff8111156114885761148761101b565b5b61149487828801611241565b925092505092959194509250565b7f4e487b7100000000000000000000000000000000000000000000000000000000600052603260045260246000fd5b6000815190506114e0816110e9565b92915050565b6000602082840312156114fc576114fb611016565b5b600061150a848285016114d1565b91505092915050565b600060408201905061152860008301856110b5565b61153560208301846112f7565b9392505050565b61154581611142565b811461155057600080fd5b50565b6000815190506115628161153c565b92915050565b60006020828403121561157e5761157d611016565b5b600061158c84828501611553565b91505092915050565b60006060820190506115aa60008301866110b5565b6115b760208301856110b5565b6115c460408301846112f7565b949350505050565b600082825260208201905092915050565b82818337600083830152505050565b6000601f19601f8301169050919050565b600061160983856115cc565b93506116168385846115dd565b61161f836115ec565b840190509392505050565b600060608201905061163f60008301876112f7565b81810360208301526116528185876115fd565b905061166160408301846112f7565b95945050505050565b7f4e487b7100000000000000000000000000000000000000000000000000000000600052601160045260246000fd5b60006116a4826110df565b91506116af836110df565b92508282019050808211156116c7576116c661166a565b5b92915050565b600060408201905081810360008301526116e88185876115fd565b90506116f760208301846112f7565b949350505050565b60008160601b9050919050565b6000611717826116ff565b9050919050565b60006117298261170c565b9050919050565b61174161173c826110a3565b61171e565b82525050565b60006117538284611730565b60148201915081905092915050565b82818337505050565b6117786101008383611762565b5050565b60006101a08201905061179260008301896112f7565b61179f60208301886112f7565b6117ac60408301876112f7565b6117b960608301866112f7565b6117c660808301856112f7565b6117d360a083018461176b565b979650505050505050565b60006117e9826110df565b91507fffffffffffffffffffffffffffffffffffffffffffffffffffffffffffffffff820361181b5761181a61166a565b5b600182019050919050565b600081519050919050565b600081905092915050565b60005b8381101561185a57808201518184015260208101905061183f565b60008484015250505050565b600061187182611826565b61187b8185611831565b935061188b81856020860161183c565b80840191505092915050565b60006118a38284611866565b91508190509291505056fea2646970667358221220e31e67cbcfc3cf71ade098a5f7a6dcd0ff4bd270adc3051d0efbc1a592fbdb1264736f6c634300081c0033",
  "linkReferences": {},
  "deployedLinkReferences": {}
}