{
  "_format": "hh-sol-artifact-1",
  "contractName": "ServiceProvider",
  "sourceName": "contracts/ServiceProvider.sol",
  "abi": [
    {
      "inputs": [
        {
          "internalType": "contract IWorldID",
          "name": "_worldId",
          "type": "address"
        },
        {
          "internalType": "string",
          "name": "_appId",
          "type": "string"
        },
        {
          "internalType": "string",
          "name": "_actionId",
          "type": "string"
        },
        {
          "internalType": "contract IERC20",
          "name": "_token",
          "type": "address"
        },
        {
          "internalType": "uint256",
          "name": "_price",
          "type": "uint256"
        },
        {
          "internalType": "uint256",
          "name": "_expirationTime",
          "type": "uint256"
        },
        {
          "internalType": "uint256",
          "name": "_minReputation",
          "type": "uint256"
        }
      ],
      "stateMutability": "nonpayable",
      "type": "constructor"
    },
    {
      "inputs": [],
      "name": "AlreadyRecommended",
      "type": "error"
    },
    {
      "inputs": [
        {
          "internalType": "uint256",
          "name": "nullifierHash",
          "type": "uint256"
        }
      ],
      "name": "DuplicateNullifier",
      "type": "error"
    },
    {
      "inputs": [],
      "name": "InsufficientBalance",
      "type": "error"
    },
    {
      "inputs": [],
      "name": "NotEnoughReputation",
      "type": "error"
    },
    {
      "inputs": [],
      "name": "OnlyProvider",
      "type": "error"
    },
    {
      "inputs": [],
      "name": "TransferFailed",
      "type": "error"
    },
    {
      "inputs": [],
      "name": "ZeroAmount",
      "type": "error"
    },
    {
      "anonymous": false,
      "inputs": [
        {
          "indexed": false,
          "internalType": "uint256",
          "name": "requestId",
          "type": "uint256"
        },
        {
          "indexed": false,
          "internalType": "uint256",
          "name": "serviceId",
          "type": "uint256"
        },
        {
          "indexed": false,
          "internalType": "string",
          "name": "encryptionKey",
          "type": "string"
        },
        {
          "indexed": false,
          "internalType": "uint256",
          "name": "timestamp",
          "type": "uint256"
        }
      ],
      "name": "NewServiceRequest",
      "type": "event"
    },
    {
      "anonymous": false,
      "inputs": [
        {
          "indexed": false,
          "internalType": "uint256",
          "name": "requestId",
          "type": "uint256"
        },
        {
          "indexed": false,
          "internalType": "string",
          "name": "encryptedConnectionDetails",
          "type": "string"
        },
        {
          "indexed": false,
          "internalType": "uint256",
          "name": "expiresAt",
          "type": "uint256"
        }
      ],
      "name": "ServiceFulfilled",
      "type": "event"
    },
    {
      "anonymous": false,
      "inputs": [
        {
          "indexed": false,
          "internalType": "uint256",
          "name": "nullifierHash",
          "type": "uint256"
        }
      ],
      "name": "Verified",
      "type": "event"
    },
    {
      "anonymous": false,
      "inputs": [
        {
          "indexed": true,
          "internalType": "address",
          "name": "provider",
          "type": "address"
        },
        {
          "indexed": false,
          "internalType": "uint256",
          "name": "amount",
          "type": "uint256"
        }
      ],
      "name": "Withdrawal",
      "type": "event"
    },
    {
      "inputs": [],
      "name": "balance",
      "outputs": [
        {
          "internalType": "uint256",
          "name": "",
          "type": "uint256"
        }
      ],
      "stateMutability": "view",
      "type": "function"
    },
    {
      "inputs": [
        {
          "internalType": "uint256[]",
          "name": "requestId",
          "type": "uint256[]"
        },
        {
          "internalType": "bytes32[]",
          "name": "groupId",
          "type": "bytes32[]"
        },
        {
          "internalType": "string[]",
          "name": "encryptedConnectionDetails",
          "type": "string[]"
        }
      ],
      "name": "batchFulfill",
      "outputs": [],
      "stateMutability": "nonpayable",
      "type": "function"
    },
    {
      "inputs": [],
      "name": "expirationTime",
      "outputs": [
        {
          "internalType": "uint256",
          "name": "",
          "type": "uint256"
        }
      ],
      "stateMutability": "view",
      "type": "function"
    },
    {
      "inputs": [
        {
          "internalType": "uint256",
          "name": "requestId",
          "type": "uint256"
        },
        {
          "internalType": "bytes32",
          "name": "groupId",
          "type": "bytes32"
        },
        {
          "internalType": "string",
          "name": "encryptedConnectionDetails",
          "type": "string"
        }
      ],
      "name": "fulfill",
      "outputs": [],
      "stateMutability": "nonpayable",
      "type": "function"
    },
    {
      "inputs": [
        {
          "internalType": "address",
          "name": "user",
          "type": "address"
        }
      ],
      "name": "getServiceRequestForUser",
      "outputs": [
        {
          "components": [
            {
              "internalType": "uint256",
              "name": "id",
              "type": "uint256"
            },
            {
              "internalType": "address",
              "name": "user",
              "type": "address"
            },
            {
              "internalType": "uint256",
              "name": "serviceId",
              "type": "uint256"
            },
            {
              "internalType": "string",
              "name": "encryptionKey",
              "type": "string"
            },
            {
              "internalType": "string",
              "name": "encryptedConnectionDetails",
              "type": "string"
            },
            {
              "internalType": "uint256",
              "name": "timestamp",
              "type": "uint256"
            },
            {
              "internalType": "bool",
              "name": "fulfilled",
              "type": "bool"
            },
            {
              "internalType": "uint256",
              "name": "expiresAt",
              "type": "uint256"
            }
          ],
          "internalType": "struct IServiceProviderStructs.ServiceRequest",
          "name": "",
          "type": "tuple"
        }
      ],
      "stateMutability": "view",
      "type": "function"
    },
    {
      "inputs": [],
      "name": "getUnfulfilledRequests",
      "outputs": [
        {
          "components": [
            {
              "internalType": "uint256",
              "name": "id",
              "type": "uint256"
            },
            {
              "internalType": "address",
              "name": "user",
              "type": "address"
            },
            {
              "internalType": "uint256",
              "name": "serviceId",
              "type": "uint256"
            },
            {
              "internalType": "string",
              "name": "encryptionKey",
              "type": "string"
            },
            {
              "internalType": "string",
              "name": "encryptedConnectionDetails",
              "type": "string"
            },
            {
              "internalType": "uint256",
              "name": "timestamp",
              "type": "uint256"
            },
            {
              "internalType": "bool",
              "name": "fulfilled",
              "type": "bool"
            },
            {
              "internalType": "uint256",
              "name": "expiresAt",
              "type": "uint256"
            }
          ],
          "internalType": "struct IServiceProviderStructs.ServiceRequest[]",
          "name": "",
          "type": "tuple[]"
        }
      ],
      "stateMutability": "view",
      "type": "function"
    },
    {
      "inputs": [
        {
          "internalType": "bytes32",
          "name": "",
          "type": "bytes32"
        },
        {
          "internalType": "uint256",
          "name": "",
          "type": "uint256"
        }
      ],
      "name": "groupIdToUsers",
      "outputs": [
        {
          "internalType": "address",
          "name": "",
          "type": "address"
        }
      ],
      "stateMutability": "view",
      "type": "function"
    },
    {
      "inputs": [],
      "name": "minReputation",
      "outputs": [
        {
          "internalType": "uint256",
          "name": "",
          "type": "uint256"
        }
      ],
      "stateMutability": "view",
      "type": "function"
    },
    {
      "inputs": [],
      "name": "nextRequestId",
      "outputs": [
        {
          "internalType": "uint256",
          "name": "",
          "type": "uint256"
        }
      ],
      "stateMutability": "view",
      "type": "function"
    },
    {
      "inputs": [
        {
          "internalType": "uint256",
          "name": "",
          "type": "uint256"
        }
      ],
      "name": "nullifierHashes",
      "outputs": [
        {
          "internalType": "bool",
          "name": "",
          "type": "bool"
        }
      ],
      "stateMutability": "view",
      "type": "function"
    },
    {
      "inputs": [],
      "name": "paymentToken",
      "outputs": [
        {
          "internalType": "contract IERC20",
          "name": "",
          "type": "address"
        }
      ],
      "stateMutability": "view",
      "type": "function"
    },
    {
      "inputs": [],
      "name": "price",
      "outputs": [
        {
          "internalType": "uint256",
          "name": "",
          "type": "uint256"
        }
      ],
      "stateMutability": "view",
      "type": "function"
    },
    {
      "inputs": [],
      "name": "provider",
      "outputs": [
        {
          "internalType": "address",
          "name": "",
          "type": "address"
        }
      ],
      "stateMutability": "view",
      "type": "function"
    },
    {
      "inputs": [
        {
          "internalType": "address",
          "name": "user",
          "type": "address"
        },
        {
          "internalType": "uint256",
          "name": "root",
          "type": "uint256"
        },
        {
          "internalType": "uint256",
          "name": "nullifierHash",
          "type": "uint256"
        },
        {
          "internalType": "uint256[8]",
          "name": "proof",
          "type": "uint256[8]"
        }
      ],
      "name": "recommend",
      "outputs": [],
      "stateMutability": "nonpayable",
      "type": "function"
    },
    {
      "inputs": [
        {
          "internalType": "address",
          "name": "",
          "type": "address"
        }
      ],
      "name": "recommendations",
      "outputs": [
        {
          "internalType": "uint256",
          "name": "",
          "type": "uint256"
        }
      ],
      "stateMutability": "view",
      "type": "function"
    },
    {
      "inputs": [
        {
          "internalType": "address",
          "name": "user",
          "type": "address"
        }
      ],
      "name": "recommendationsCount",
      "outputs": [
        {
          "internalType": "uint256",
          "name": "",
          "type": "uint256"
        }
      ],
      "stateMutability": "view",
      "type": "function"
    },
    {
      "inputs": [
        {
          "internalType": "address",
          "name": "",
          "type": "address"
        },
        {
          "internalType": "address",
          "name": "",
          "type": "address"
        }
      ],
      "name": "recommended",
      "outputs": [
        {
          "internalType": "bool",
          "name": "",
          "type": "bool"
        }
      ],
      "stateMutability": "view",
      "type": "function"
    },
    {
      "inputs": [
        {
          "internalType": "bytes32",
          "name": "groupId",
          "type": "bytes32"
        }
      ],
      "name": "reportGroupId",
      "outputs": [],
      "stateMutability": "nonpayable",
      "type": "function"
    },
    {
      "inputs": [
        {
          "internalType": "uint256",
          "name": "serviceId",
          "type": "uint256"
        },
        {
          "internalType": "string",
          "name": "encryptionKey",
          "type": "string"
        }
      ],
      "name": "requestService",
      "outputs": [],
      "stateMutability": "nonpayable",
      "type": "function"
    },
    {
      "inputs": [
        {
          "internalType": "uint256",
          "name": "",
          "type": "uint256"
        }
      ],
      "name": "requests",
      "outputs": [
        {
          "internalType": "uint256",
          "name": "id",
          "type": "uint256"
        },
        {
          "internalType": "address",
          "name": "user",
          "type": "address"
        },
        {
          "internalType": "uint256",
          "name": "serviceId",
          "type": "uint256"
        },
        {
          "internalType": "string",
          "name": "encryptionKey",
          "type": "string"
        },
        {
          "internalType": "string",
          "name": "encryptedConnectionDetails",
          "type": "string"
        },
        {
          "internalType": "uint256",
          "name": "timestamp",
          "type": "uint256"
        },
        {
          "internalType": "bool",
          "name": "fulfilled",
          "type": "bool"
        },
        {
          "internalType": "uint256",
          "name": "expiresAt",
          "type": "uint256"
        }
      ],
      "stateMutability": "view",
      "type": "function"
    },
    {
      "inputs": [
        {
          "internalType": "uint256",
          "name": "_price",
          "type": "uint256"
        }
      ],
      "name": "setPrice",
      "outputs": [],
      "stateMutability": "nonpayable",
      "type": "function"
    },
    {
      "inputs": [
        {
          "internalType": "address",
          "name": "",
          "type": "address"
        }
      ],
      "name": "userToGroupId",
      "outputs": [
        {
          "internalType": "bytes32",
          "name": "",
          "type": "bytes32"
        }
      ],
      "stateMutability": "view",
      "type": "function"
    },
    {
      "inputs": [
        {
          "internalType": "address",
          "name": "",
          "type": "address"
        }
      ],
      "name": "userToRequest",
      "outputs": [
        {
          "internalType": "uint256",
          "name": "",
          "type": "uint256"
        }
      ],
      "stateMutability": "view",
      "type": "function"
    },
    {
      "inputs": [
        {
          "internalType": "uint256",
          "name": "amount",
          "type": "uint256"
        }
      ],
      "name": "withdraw",
      "outputs": [],
      "stateMutability": "nonpayable",
      "type": "function"
    }
  ],
  "bytecode": "0x60e0604052600160c09081525034801561001857600080fd5b50604051613385380380613385833981810160405281019061003a919061040b565b8686868273ffffffffffffffffffffffffffffffffffffffff1660808173ffffffffffffffffffffffffffffffffffffffff16815250506100ce6100a283604051602001610088919061052c565b60405160208183030381529060405261017b60201b60201c565b826040516020016100b4929190610564565b60405160208183030381529060405261017b60201b60201c565b60a0818152505050505083600560006101000a81548173ffffffffffffffffffffffffffffffffffffffff021916908373ffffffffffffffffffffffffffffffffffffffff16021790555033600460006101000a81548173ffffffffffffffffffffffffffffffffffffffff021916908373ffffffffffffffffffffffffffffffffffffffff160217905550826003819055508160068190555080600781905550505050505050506105ea565b600060088260405160200161019091906105d3565b6040516020818303038152906040528051906020012060001c901c9050919050565b6000604051905090565b600080fd5b600080fd5b600073ffffffffffffffffffffffffffffffffffffffff82169050919050565b60006101f1826101c6565b9050919050565b6000610203826101e6565b9050919050565b610213816101f8565b811461021e57600080fd5b50565b6000815190506102308161020a565b92915050565b600080fd5b600080fd5b6000601f19601f8301169050919050565b7f4e487b7100000000000000000000000000000000000000000000000000000000600052604160045260246000fd5b61028982610240565b810181811067ffffffffffffffff821117156102a8576102a7610251565b5b80604052505050565b60006102bb6101b2565b90506102c78282610280565b919050565b600067ffffffffffffffff8211156102e7576102e6610251565b5b6102f082610240565b9050602081019050919050565b60005b8381101561031b578082015181840152602081019050610300565b60008484015250505050565b600061033a610335846102cc565b6102b1565b9050828152602081018484840111156103565761035561023b565b5b6103618482856102fd565b509392505050565b600082601f83011261037e5761037d610236565b5b815161038e848260208601610327565b91505092915050565b60006103a2826101e6565b9050919050565b6103b281610397565b81146103bd57600080fd5b50565b6000815190506103cf816103a9565b92915050565b6000819050919050565b6103e8816103d5565b81146103f357600080fd5b50565b600081519050610405816103df565b92915050565b600080600080600080600060e0888a03121561042a576104296101bc565b5b60006104388a828b01610221565b975050602088015167ffffffffffffffff811115610459576104586101c1565b5b6104658a828b01610369565b965050604088015167ffffffffffffffff811115610486576104856101c1565b5b6104928a828b01610369565b95505060606104a38a828b016103c0565b94505060806104b48a828b016103f6565b93505060a06104c58a828b016103f6565b92505060c06104d68a828b016103f6565b91505092959891949750929550565b600081519050919050565b600081905092915050565b6000610506826104e5565b61051081856104f0565b93506105208185602086016102fd565b80840191505092915050565b600061053882846104fb565b915081905092915050565b6000819050919050565b61055e610559826103d5565b610543565b82525050565b6000610570828561054d565b60208201915061058082846104fb565b91508190509392505050565b600081519050919050565b600081905092915050565b60006105ad8261058c565b6105b78185610597565b93506105c78185602086016102fd565b80840191505092915050565b60006105df82846105a2565b915081905092915050565b60805160a05160c051612d75610610600039600050506000505060005050612d756000f3fe608060405234801561001057600080fd5b50600436106101585760003560e01c80638a49d9b9116100c3578063c3f6caa51161007c578063c3f6caa5146103e0578063d1746c8c14610410578063da284dcc1461042c578063db12b1a21461044a578063ddce84d71461047a578063ef7f0ab6146104aa57610158565b80638a49d9b91461030c57806391b7f5ed14610328578063a035b1fe14610344578063a8b2b6da14610362578063b69ef8a814610392578063bbf5066c146103b057610158565b80633013ce29116101155780633013ce29146102315780634523bf0f1461024f578063697c50ab1461027f5780636a84a9851461029b5780637db80dba146102b957806381d12c58146102d557610158565b806301172a8a1461015d5780630375394c14610179578063085d4883146101975780631f79a1e9146101b55780632ca12d4d146101e55780632e1a7d4d14610215575b600080fd5b61017760048036038101906101729190611ab5565b6104c8565b005b6101816105a5565b60405161018e9190611d60565b60405180910390f35b61019f6108a8565b6040516101ac9190611d91565b60405180910390f35b6101cf60048036038101906101ca9190611dd8565b6108ce565b6040516101dc9190611e14565b60405180910390f35b6101ff60048036038101906101fa9190611e5b565b6108ee565b60405161020c9190611e97565b60405180910390f35b61022f600480360381019061022a9190611dd8565b610906565b005b610239610c0c565b6040516102469190611f11565b60405180910390f35b61026960048036038101906102649190611f2c565b610c32565b6040516102769190611d91565b60405180910390f35b61029960048036038101906102949190611fd1565b610c80565b005b6102a3610db6565b6040516102b09190611e97565b60405180910390f35b6102d360048036038101906102ce9190612045565b610dbc565b005b6102ef60048036038101906102ea9190611dd8565b611102565b6040516103039897969594939291906120ef565b60405180910390f35b610326600480360381019061032191906123d2565b611287565b005b610342600480360381019061033d9190611dd8565b611391565b005b61034c611422565b6040516103599190611e97565b60405180910390f35b61037c60048036038101906103779190611e5b565b611428565b6040516103899190611e97565b60405180910390f35b61039a61143a565b6040516103a79190611e97565b60405180910390f35b6103ca60048036038101906103c59190611e5b565b6114dd565b6040516103d79190611e97565b60405180910390f35b6103fa60048036038101906103f5919061247e565b6114f5565b6040516104079190611e14565b60405180910390f35b61042a600480360381019061042591906124e0565b611524565b005b610434611536565b6040516104419190611e97565b60405180910390f35b610464600480360381019061045f9190611e5b565b61153c565b6040516104719190612557565b60405180910390f35b610494600480360381019061048f9190611e5b565b611554565b6040516104a19190612629565b60405180910390f35b6104b261177e565b6040516104bf9190611e97565b60405180910390f35b60006009600083815260200190815260200160002080548060200260200160405190810160405280929190818152602001828054801561055d57602002820191906000526020600020905b8160009054906101000a900473ffffffffffffffffffffffffffffffffffffffff1673ffffffffffffffffffffffffffffffffffffffff1681526020019060010190808311610513575b5050505050905060005b81518110156105a0576105938282815181106105865761058561264b565b5b6020026020010151611784565b8080600101915050610567565b505050565b60606000805b600c548110156105f957600b600082815260200190815260200160002060060160009054906101000a900460ff166105ec5781806105e8906126a9565b9250505b80806001019150506105ab565b5060008167ffffffffffffffff8111156106165761061561217b565b5b60405190808252806020026020018201604052801561064f57816020015b61063c611a0e565b8152602001906001900390816106345790505b5090506000805b600c5481101561089e57600b600082815260200190815260200160002060060160009054906101000a900460ff1661089157600b600082815260200190815260200160002060405180610100016040529081600082015481526020016001820160009054906101000a900473ffffffffffffffffffffffffffffffffffffffff1673ffffffffffffffffffffffffffffffffffffffff1673ffffffffffffffffffffffffffffffffffffffff1681526020016002820154815260200160038201805461072190612720565b80601f016020809104026020016040519081016040528092919081815260200182805461074d90612720565b801561079a5780601f1061076f5761010080835404028352916020019161079a565b820191906000526020600020905b81548152906001019060200180831161077d57829003601f168201915b505050505081526020016004820180546107b390612720565b80601f01602080910402602001604051908101604052809291908181526020018280546107df90612720565b801561082c5780601f106108015761010080835404028352916020019161082c565b820191906000526020600020905b81548152906001019060200180831161080f57829003601f168201915b50505050508152602001600582015481526020016006820160009054906101000a900460ff161515151581526020016007820154815250508383815181106108775761087661264b565b5b6020026020010181905250818061088d906126a9565b9250505b8080600101915050610656565b5081935050505090565b600460009054906101000a900473ffffffffffffffffffffffffffffffffffffffff1681565b60006020528060005260406000206000915054906101000a900460ff1681565b600a6020528060005260406000206000915090505481565b600460009054906101000a900473ffffffffffffffffffffffffffffffffffffffff1673ffffffffffffffffffffffffffffffffffffffff163373ffffffffffffffffffffffffffffffffffffffff161461098d576040517feb79da3b00000000000000000000000000000000000000000000000000000000815260040160405180910390fd5b600081036109c7576040517f1f2a200500000000000000000000000000000000000000000000000000000000815260040160405180910390fd5b80600560009054906101000a900473ffffffffffffffffffffffffffffffffffffffff1673ffffffffffffffffffffffffffffffffffffffff166370a08231306040518263ffffffff1660e01b8152600401610a239190611d91565b602060405180830381865afa158015610a40573d6000803e3d6000fd5b505050506040513d601f19601f82011682018060405250810190610a649190612766565b10610a9b576040517ff4d678b800000000000000000000000000000000000000000000000000000000815260040160405180910390fd5b6000600560009054906101000a900473ffffffffffffffffffffffffffffffffffffffff1673ffffffffffffffffffffffffffffffffffffffff1663a9059cbb600460009054906101000a900473ffffffffffffffffffffffffffffffffffffffff16846040518363ffffffff1660e01b8152600401610b1c929190612793565b6020604051808303816000875af1158015610b3b573d6000803e3d6000fd5b505050506040513d601f19601f82011682018060405250810190610b5f91906127e8565b905080610b98576040517f90b8ec1800000000000000000000000000000000000000000000000000000000815260040160405180910390fd5b600460009054906101000a900473ffffffffffffffffffffffffffffffffffffffff1673ffffffffffffffffffffffffffffffffffffffff167f7fcf532c15f0a6db0bd6d0e038bea71d30d808c7d98cb3bf7268a95bf5081b6583604051610c009190611e97565b60405180910390a25050565b600560009054906101000a900473ffffffffffffffffffffffffffffffffffffffff1681565b60096020528160005260406000208181548110610c4e57600080fd5b906000526020600020016000915091509054906101000a900473ffffffffffffffffffffffffffffffffffffffff1681565b600460009054906101000a900473ffffffffffffffffffffffffffffffffffffffff1673ffffffffffffffffffffffffffffffffffffffff163373ffffffffffffffffffffffffffffffffffffffff1614610d07576040517feb79da3b00000000000000000000000000000000000000000000000000000000815260040160405180910390fd5b6000600b6000868152602001908152602001600020905060018160060160006101000a81548160ff0219169083151502179055508282826004019182610d4e9291906129c2565b5060065442610d5d9190612a92565b81600701819055507fdf181bb520891106198cb4c185db844040eae66fcd29d0473204a40197ea23c485848460065442610d979190612a92565b604051610da79493929190612b02565b60405180910390a15050505050565b600c5481565b600754610dc8336117dd565b1015610e00576040517f72746f1000000000000000000000000000000000000000000000000000000000815260040160405180910390fd5b6000600560009054906101000a900473ffffffffffffffffffffffffffffffffffffffff1673ffffffffffffffffffffffffffffffffffffffff166323b872dd33306003546040518463ffffffff1660e01b8152600401610e6393929190612b42565b6020604051808303816000875af1158015610e82573d6000803e3d6000fd5b505050506040513d601f19601f82011682018060405250810190610ea691906127e8565b905080610edf576040517f90b8ec1800000000000000000000000000000000000000000000000000000000815260040160405180910390fd5b600c54600a60003373ffffffffffffffffffffffffffffffffffffffff1673ffffffffffffffffffffffffffffffffffffffff16815260200190815260200160002081905550604051806101000160405280600c5481526020013373ffffffffffffffffffffffffffffffffffffffff16815260200185815260200184848080601f016020809104026020016040519081016040528093929190818152602001838380828437600081840152601f19601f8201169050808301925050505050505081526020016040518060200160405280600081525081526020014281526020016000151581526020016000815250600b6000600c5481526020019081526020016000206000820151816000015560208201518160010160006101000a81548173ffffffffffffffffffffffffffffffffffffffff021916908373ffffffffffffffffffffffffffffffffffffffff1602179055506040820151816002015560608201518160030190816110539190612b79565b5060808201518160040190816110699190612b79565b5060a0820151816005015560c08201518160060160006101000a81548160ff02191690831515021790555060e082015181600701559050507ffb8a49d750cf39e10d648a04a08026bff2035a225def3b707a925d6fbbbb0ca5600c54858585426040516110da959493929190612c4b565b60405180910390a16001600c60008282546110f59190612a92565b9250508190555050505050565b600b6020528060005260406000206000915090508060000154908060010160009054906101000a900473ffffffffffffffffffffffffffffffffffffffff169080600201549080600301805461115790612720565b80601f016020809104026020016040519081016040528092919081815260200182805461118390612720565b80156111d05780601f106111a5576101008083540402835291602001916111d0565b820191906000526020600020905b8154815290600101906020018083116111b357829003601f168201915b5050505050908060040180546111e590612720565b80601f016020809104026020016040519081016040528092919081815260200182805461121190612720565b801561125e5780601f106112335761010080835404028352916020019161125e565b820191906000526020600020905b81548152906001019060200180831161124157829003601f168201915b5050505050908060050154908060060160009054906101000a900460ff16908060070154905088565b600460009054906101000a900473ffffffffffffffffffffffffffffffffffffffff1673ffffffffffffffffffffffffffffffffffffffff163373ffffffffffffffffffffffffffffffffffffffff161461130e576040517feb79da3b00000000000000000000000000000000000000000000000000000000815260040160405180910390fd5b60005b845181101561138a5761137d8582815181106113305761132f61264b565b5b602002602001015185838151811061134b5761134a61264b565b5b60200260200101518585858181106113665761136561264b565b5b90506020028101906113789190612ca8565b610c80565b8080600101915050611311565b5050505050565b600460009054906101000a900473ffffffffffffffffffffffffffffffffffffffff1673ffffffffffffffffffffffffffffffffffffffff163373ffffffffffffffffffffffffffffffffffffffff1614611418576040517feb79da3b00000000000000000000000000000000000000000000000000000000815260040160405180910390fd5b8060038190555050565b60035481565b6000611433826117dd565b9050919050565b6000600560009054906101000a900473ffffffffffffffffffffffffffffffffffffffff1673ffffffffffffffffffffffffffffffffffffffff166370a08231306040518263ffffffff1660e01b81526004016114979190611d91565b602060405180830381865afa1580156114b4573d6000803e3d6000fd5b505050506040513d601f19601f820116820180604052508101906114d89190612766565b905090565b60016020528060005260406000206000915090505481565b60026020528160005260406000206020528060005260406000206000915091509054906101000a900460ff1681565b61153084848484611826565b50505050565b60065481565b60086020528060005260406000206000915090505481565b61155c611a0e565b600b6000600a60008573ffffffffffffffffffffffffffffffffffffffff1673ffffffffffffffffffffffffffffffffffffffff16815260200190815260200160002054815260200190815260200160002060405180610100016040529081600082015481526020016001820160009054906101000a900473ffffffffffffffffffffffffffffffffffffffff1673ffffffffffffffffffffffffffffffffffffffff1673ffffffffffffffffffffffffffffffffffffffff1681526020016002820154815260200160038201805461163490612720565b80601f016020809104026020016040519081016040528092919081815260200182805461166090612720565b80156116ad5780601f10611682576101008083540402835291602001916116ad565b820191906000526020600020905b81548152906001019060200180831161169057829003601f168201915b505050505081526020016004820180546116c690612720565b80601f01602080910402602001604051908101604052809291908181526020018280546116f290612720565b801561173f5780601f106117145761010080835404028352916020019161173f565b820191906000526020600020905b81548152906001019060200180831161172257829003601f168201915b50505050508152602001600582015481526020016006820160009054906101000a900460ff161515151581526020016007820154815250509050919050565b60075481565b60018060008373ffffffffffffffffffffffffffffffffffffffff1673ffffffffffffffffffffffffffffffffffffffff16815260200190815260200160002060008282546117d39190612d0b565b9250508190555050565b6000600160008373ffffffffffffffffffffffffffffffffffffffff1673ffffffffffffffffffffffffffffffffffffffff168152602001908152602001600020549050919050565b600260003373ffffffffffffffffffffffffffffffffffffffff1673ffffffffffffffffffffffffffffffffffffffff16815260200190815260200160002060008573ffffffffffffffffffffffffffffffffffffffff1673ffffffffffffffffffffffffffffffffffffffff16815260200190815260200160002060009054906101000a900460ff16156118e7576040517f7ab104eb00000000000000000000000000000000000000000000000000000000815260040160405180910390fd5b600160008573ffffffffffffffffffffffffffffffffffffffff1673ffffffffffffffffffffffffffffffffffffffff1681526020019081526020016000206000815480929190611937906126a9565b91905055506001600260003373ffffffffffffffffffffffffffffffffffffffff1673ffffffffffffffffffffffffffffffffffffffff16815260200190815260200160002060008673ffffffffffffffffffffffffffffffffffffffff1673ffffffffffffffffffffffffffffffffffffffff16815260200190815260200160002060006101000a81548160ff0219169083151502179055507ff786e7f77ede00a02a5464f8f0555798f42ba99a4a920ef2778db8d75e4656f782604051611a009190611e97565b60405180910390a150505050565b60405180610100016040528060008152602001600073ffffffffffffffffffffffffffffffffffffffff16815260200160008152602001606081526020016060815260200160008152602001600015158152602001600081525090565b6000604051905090565b600080fd5b600080fd5b6000819050919050565b611a9281611a7f565b8114611a9d57600080fd5b50565b600081359050611aaf81611a89565b92915050565b600060208284031215611acb57611aca611a75565b5b6000611ad984828501611aa0565b91505092915050565b600081519050919050565b600082825260208201905092915050565b6000819050602082019050919050565b6000819050919050565b611b2181611b0e565b82525050565b600073ffffffffffffffffffffffffffffffffffffffff82169050919050565b6000611b5282611b27565b9050919050565b611b6281611b47565b82525050565b600081519050919050565b600082825260208201905092915050565b60005b83811015611ba2578082015181840152602081019050611b87565b60008484015250505050565b6000601f19601f8301169050919050565b6000611bca82611b68565b611bd48185611b73565b9350611be4818560208601611b84565b611bed81611bae565b840191505092915050565b60008115159050919050565b611c0d81611bf8565b82525050565b600061010083016000830151611c2c6000860182611b18565b506020830151611c3f6020860182611b59565b506040830151611c526040860182611b18565b5060608301518482036060860152611c6a8282611bbf565b91505060808301518482036080860152611c848282611bbf565b91505060a0830151611c9960a0860182611b18565b5060c0830151611cac60c0860182611c04565b5060e0830151611cbf60e0860182611b18565b508091505092915050565b6000611cd68383611c13565b905092915050565b6000602082019050919050565b6000611cf682611ae2565b611d008185611aed565b935083602082028501611d1285611afe565b8060005b85811015611d4e5784840389528151611d2f8582611cca565b9450611d3a83611cde565b925060208a01995050600181019050611d16565b50829750879550505050505092915050565b60006020820190508181036000830152611d7a8184611ceb565b905092915050565b611d8b81611b47565b82525050565b6000602082019050611da66000830184611d82565b92915050565b611db581611b0e565b8114611dc057600080fd5b50565b600081359050611dd281611dac565b92915050565b600060208284031215611dee57611ded611a75565b5b6000611dfc84828501611dc3565b91505092915050565b611e0e81611bf8565b82525050565b6000602082019050611e296000830184611e05565b92915050565b611e3881611b47565b8114611e4357600080fd5b50565b600081359050611e5581611e2f565b92915050565b600060208284031215611e7157611e70611a75565b5b6000611e7f84828501611e46565b91505092915050565b611e9181611b0e565b82525050565b6000602082019050611eac6000830184611e88565b92915050565b6000819050919050565b6000611ed7611ed2611ecd84611b27565b611eb2565b611b27565b9050919050565b6000611ee982611ebc565b9050919050565b6000611efb82611ede565b9050919050565b611f0b81611ef0565b82525050565b6000602082019050611f266000830184611f02565b92915050565b60008060408385031215611f4357611f42611a75565b5b6000611f5185828601611aa0565b9250506020611f6285828601611dc3565b9150509250929050565b600080fd5b600080fd5b600080fd5b60008083601f840112611f9157611f90611f6c565b5b8235905067ffffffffffffffff811115611fae57611fad611f71565b5b602083019150836001820283011115611fca57611fc9611f76565b5b9250929050565b60008060008060608587031215611feb57611fea611a75565b5b6000611ff987828801611dc3565b945050602061200a87828801611aa0565b935050604085013567ffffffffffffffff81111561202b5761202a611a7a565b5b61203787828801611f7b565b925092505092959194509250565b60008060006040848603121561205e5761205d611a75565b5b600061206c86828701611dc3565b935050602084013567ffffffffffffffff81111561208d5761208c611a7a565b5b61209986828701611f7b565b92509250509250925092565b600082825260208201905092915050565b60006120c182611b68565b6120cb81856120a5565b93506120db818560208601611b84565b6120e481611bae565b840191505092915050565b600061010082019050612105600083018b611e88565b612112602083018a611d82565b61211f6040830189611e88565b818103606083015261213181886120b6565b9050818103608083015261214581876120b6565b905061215460a0830186611e88565b61216160c0830185611e05565b61216e60e0830184611e88565b9998505050505050505050565b7f4e487b7100000000000000000000000000000000000000000000000000000000600052604160045260246000fd5b6121b382611bae565b810181811067ffffffffffffffff821117156121d2576121d161217b565b5b80604052505050565b60006121e5611a6b565b90506121f182826121aa565b919050565b600067ffffffffffffffff8211156122115761221061217b565b5b602082029050602081019050919050565b6000612235612230846121f6565b6121db565b9050808382526020820190506020840283018581111561225857612257611f76565b5b835b81811015612281578061226d8882611dc3565b84526020840193505060208101905061225a565b5050509392505050565b600082601f8301126122a05761229f611f6c565b5b81356122b0848260208601612222565b91505092915050565b600067ffffffffffffffff8211156122d4576122d361217b565b5b602082029050602081019050919050565b60006122f86122f3846122b9565b6121db565b9050808382526020820190506020840283018581111561231b5761231a611f76565b5b835b8181101561234457806123308882611aa0565b84526020840193505060208101905061231d565b5050509392505050565b600082601f83011261236357612362611f6c565b5b81356123738482602086016122e5565b91505092915050565b60008083601f84011261239257612391611f6c565b5b8235905067ffffffffffffffff8111156123af576123ae611f71565b5b6020830191508360208202830111156123cb576123ca611f76565b5b9250929050565b600080600080606085870312156123ec576123eb611a75565b5b600085013567ffffffffffffffff81111561240a57612409611a7a565b5b6124168782880161228b565b945050602085013567ffffffffffffffff81111561243757612436611a7a565b5b6124438782880161234e565b935050604085013567ffffffffffffffff81111561246457612463611a7a565b5b6124708782880161237c565b925092505092959194509250565b6000806040838503121561249557612494611a75565b5b60006124a385828601611e46565b92505060206124b485828601611e46565b9150509250929050565b6000819050826020600802820111156124da576124d9611f76565b5b92915050565b60008060008061016085870312156124fb576124fa611a75565b5b600061250987828801611e46565b945050602061251a87828801611dc3565b935050604061252b87828801611dc3565b925050606061253c878288016124be565b91505092959194509250565b61255181611a7f565b82525050565b600060208201905061256c6000830184612548565b92915050565b60006101008301600083015161258b6000860182611b18565b50602083015161259e6020860182611b59565b5060408301516125b16040860182611b18565b50606083015184820360608601526125c98282611bbf565b915050608083015184820360808601526125e38282611bbf565b91505060a08301516125f860a0860182611b18565b5060c083015161260b60c0860182611c04565b5060e083015161261e60e0860182611b18565b508091505092915050565b600060208201905081810360008301526126438184612572565b905092915050565b7f4e487b7100000000000000000000000000000000000000000000000000000000600052603260045260246000fd5b7f4e487b7100000000000000000000000000000000000000000000000000000000600052601160045260246000fd5b60006126b482611b0e565b91507fffffffffffffffffffffffffffffffffffffffffffffffffffffffffffffffff82036126e6576126e561267a565b5b600182019050919050565b7f4e487b7100000000000000000000000000000000000000000000000000000000600052602260045260246000fd5b6000600282049050600182168061273857607f821691505b60208210810361274b5761274a6126f1565b5b50919050565b60008151905061276081611dac565b92915050565b60006020828403121561277c5761277b611a75565b5b600061278a84828501612751565b91505092915050565b60006040820190506127a86000830185611d82565b6127b56020830184611e88565b9392505050565b6127c581611bf8565b81146127d057600080fd5b50565b6000815190506127e2816127bc565b92915050565b6000602082840312156127fe576127fd611a75565b5b600061280c848285016127d3565b91505092915050565b600082905092915050565b60008190508160005260206000209050919050565b60006020601f8301049050919050565b600082821b905092915050565b6000600883026128827fffffffffffffffffffffffffffffffffffffffffffffffffffffffffffffffff82612845565b61288c8683612845565b95508019841693508086168417925050509392505050565b60006128bf6128ba6128b584611b0e565b611eb2565b611b0e565b9050919050565b6000819050919050565b6128d9836128a4565b6128ed6128e5826128c6565b848454612852565b825550505050565b600090565b6129026128f5565b61290d8184846128d0565b505050565b5b81811015612931576129266000826128fa565b600181019050612913565b5050565b601f8211156129765761294781612820565b61295084612835565b8101602085101561295f578190505b61297361296b85612835565b830182612912565b50505b505050565b600082821c905092915050565b60006129996000198460080261297b565b1980831691505092915050565b60006129b28383612988565b9150826002028217905092915050565b6129cc8383612815565b67ffffffffffffffff8111156129e5576129e461217b565b5b6129ef8254612720565b6129fa828285612935565b6000601f831160018114612a295760008415612a17578287013590505b612a2185826129a6565b865550612a89565b601f198416612a3786612820565b60005b82811015612a5f57848901358255600182019150602085019450602081019050612a3a565b86831015612a7c5784890135612a78601f891682612988565b8355505b6001600288020188555050505b50505050505050565b6000612a9d82611b0e565b9150612aa883611b0e565b9250828201905080821115612ac057612abf61267a565b5b92915050565b82818337600083830152505050565b6000612ae183856120a5565b9350612aee838584612ac6565b612af783611bae565b840190509392505050565b6000606082019050612b176000830187611e88565b8181036020830152612b2a818587612ad5565b9050612b396040830184611e88565b95945050505050565b6000606082019050612b576000830186611d82565b612b646020830185611d82565b612b716040830184611e88565b949350505050565b612b8282611b68565b67ffffffffffffffff811115612b9b57612b9a61217b565b5b612ba58254612720565b612bb0828285612935565b600060209050601f831160018114612be35760008415612bd1578287015190505b612bdb85826129a6565b865550612c43565b601f198416612bf186612820565b60005b82811015612c1957848901518255600182019150602085019450602081019050612bf4565b86831015612c365784890151612c32601f891682612988565b8355505b6001600288020188555050505b505050505050565b6000608082019050612c606000830188611e88565b612c6d6020830187611e88565b8181036040830152612c80818587612ad5565b9050612c8f6060830184611e88565b9695505050505050565b600080fd5b600080fd5b600080fd5b60008083356001602003843603038112612cc557612cc4612c99565b5b80840192508235915067ffffffffffffffff821115612ce757612ce6612c9e565b5b602083019250600182023603831315612d0357612d02612ca3565b5b509250929050565b6000612d1682611b0e565b9150612d2183611b0e565b9250828203905081811115612d3957612d3861267a565b5b9291505056fea26469706673582212205cd224586337ec5a6c418e7ce74788f680f9a10f673499e0dd3387dcc1ef14fd64736f6c634300081c0033",
  "linkReferences": {},
  "deployedLinkReferences": {}
}